:100000000C9463000C948B000C948B000C948B006C
:100010000C948B000C948B000C948B000C948B0034
:100020000C948B000C948B000C948B000C948B0024
:100030000C948B000C948B000C948B000C948B0014
:100040000C94F30A0C948B000C94360F0C94790FDB
:100050000C948B000C948B000C948B000C948B00F4
:100060000C948B000C948B00000000070002010030
:100070000003040600000000000000000102040864
:100080001020408001020408102001020408102002
:10009000040404040404040402020202020203032E
:1000A00003030303000000002300260029000000D2
:1000B0000000250028002B0000000000240027007D
:1000C0002A00420A351011241FBECFEFD8E0DEBF50
:1000D000CDBF13E0A0E0B1E0EAE8F2E202C0059093
:1000E0000D92A230B107D9F716E0A2E0B3E001C04B
:1000F0001D92AC3AB107E1F710E0C6ECD0E004C0C5
:100100002297FE010E942711C23CD107C9F70E9425
:10011000B3100C9443110C940000FC01DB018281AC
:100120008C93838111968C931197848112968C9372
:100130001297858113968C931397868114968C93CE
:100140001497878115968C931597808516968C93B6
:100150001697818517968C9388E090E00895FC01AE
:10016000DB014C9150E060E070E042835383648394
:10017000758311968C911197582B42835383648316
:10018000758312968C911297682B428353836483F4
:10019000758313968C911397782B428353836483D2
:1001A000758314964C91149750E060E070E046839C
:1001B00057836087718715968C911597582B4683C6
:1001C00057836087718716968C911697682B4683A4
:1001D00057836087718717968C91782B4683578356
:1001E0006087718788E090E0089586E091E0089547
:1001F00084E191E008956F927F928F929F92AF92E7
:10020000BF92CF92DF92EF92FF920F931F93CF9303
:10021000DF93FC01DB018C9190E093838283119644
:100220002C911197922B9383828312964D915D911D
:100230006D917C9115975D0186E0A80EB11C8A0135
:100240009B010A5F1F4F2F4F3F4F6501CA1ADB0A00
:10025000E12CF12CC016D106E206F30640F4E501CC
:10026000F9905E01CE010297EC01F882EECFED012C
:10027000C40FD51F1D82CD01059695838483ED01A2
:10028000C40FD51FCE80DF80E884F984465F5F4FBE
:100290003D01640E751E8A01222717FD2095322F1D
:1002A0000C0D1D1D2E1D3F1D43018A1A9B0AA12CFA
:1002B000B12C80169106A206B30640F4E3016991C1
:1002C0003E01CE010297EC016883EECFC40ED51E2D
:1002D0009D012C0D3D1DC9010197EC011882415073
:1002E00051094A0F5B1F57834683E9010881198131
:1002F0002A813B81D4E0CD0ED11C3D016C0C7D1CCC
:10030000A601662757FD6095762F400F511F621F8B
:10031000731F43018A1A9B0AA12CB12C84169506DF
:10032000A606B70640F4E301F9903E01CE0102971C
:10033000EC01F882EECF0C0D1D1D9D01200F311F29
:10034000C9010197EC011882D1E0CD1AD108CA0E7B
:10035000DB1ED186C086D90111968C911197129619
:100360004C91129750E060E070E0BA0155274427A5
:10037000582B8C91482B13968C91782B428753875E
:1003800064877587C8010496DF91CF911F910F9103
:10039000FF90EF90DF90CF90BF90AF909F908F90A5
:1003A0007F906F90089585E391E008958EE491E049
:1003B0000895AF92BF92CF92DF92EF92FF921F9378
:1003C000CF93DF939C01FB018081D90112968C931E
:1003D00081819281A381B4815B01C5E0AC0EB11C27
:1003E000AC01BD014B5F5F4F6F4F7F4F6501CE1A70
:1003F000DF0AE12CF12CC416D506E606F70650F408
:10040000E501D9905E017E01D2E0ED1AF108E70125
:10041000D882ECCFEF01C80FD91F1C823496E901B6
:10042000FC83EB830596DF91CF911F91FF90EF90B6
:10043000DF90CF90BF90AF9008958FE691E0089540
:1004400082E891E0089587E792E0089583EA91E0D9
:100450000895FC018281FB01808381E090E0089592
:10046000FB012081FC01228381E090E0089584EC6F
:1004700091E0089582ED91E00895FC018281FB01F5
:10048000808381E090E00895FB012081FC012283BC
:1004900081E090E0089583EF91E0089581E092E09B
:1004A0000895DB012C91FC0120870184F285E02D69
:1004B00006960994FC0183859485089584EC91E067
:1004C000089582ED91E008958E549D4FFC01808146
:1004D0000895AF92BF92CF92DF92EF92FF920F9367
:1004E0001F93CF93DF93EC017B018A81DB018C9317
:1004F0008B8111968C93EC81FD81DF010D900020A2
:10050000E9F7CD0101976C01CE1ADF0AC601A0E020
:10051000B0E0FB0182839383A483B5836C817D81EA
:10052000A601C70106960E943A11EE81FF81DF0104
:100530000D900020E9F7CD0101975C01AE1ABF0ACA
:10054000F701EC0DFD1D850120E030E006831783E7
:10055000208731879AE0C90ED11C6E817F81A50169
:10056000C7018C0D9D1D0E943A11CA0CDB1CE88549
:10057000F985DF010D900020E9F7CD0101975C01BD
:10058000AE1ABF0AF701EC0DFD1D850120E030E039
:10059000008311832283338394E0C90ED11C6885C4
:1005A0007985A501C7018C0D9D1D0E943A11AC0CE7
:1005B000BD1C3A852B859C858D85F701EA0DFB1DB9
:1005C0003083218392838383C5010496DF91CF9189
:1005D0001F910F91FF90EF90DF90CF90BF90AF9061
:1005E00008950F931F93CF93DF93DC01FB011296C5
:1005F0008C911297808313968D919C911497EC01A6
:1006000009900020E9F72197C81BD90B8E0120E043
:1006100030E0018312832383348313966D917C91A0
:100620001497AE01CF0105960E943A11CE010596AE
:10063000DF91CF911F910F910895BF92CF92DF92DA
:10064000EF92FF920F931F93CF93DF93EC017B0107
:100650008A81DB018C9311961C92119712961C9241
:10066000129713961C92FB01379640E024E030E08D
:100670005A81C90104964517F0F4AF81B88524E08A
:10068000429FA00DB11D11246C9111965C911197A0
:1006900012963C91129713962C91DF0113976C934D
:1006A000DF0112975C93DF0111973C9320839C013B
:1006B0004F5F3496DDCF4985F701E20FF31F40838A
:1006C00011821282138220E03985F701E80FF91FA9
:1006D00004962317B0F4AE85BF8534E0239FA00DA8
:1006E000B11D11246C9111965C91119712964C9149
:1006F000129713963C9160835183428333832F5F1B
:10070000E3CF28892083118212821382B12C288999
:10071000B21698F54B2D50E0440F551FEB89FC891C
:10072000E40FF51F0190F081E02DDF010D90002016
:10073000E9F79D01215031096901CE1ADF0AF7015D
:10074000E80FF91F860120E030E000831183228347
:1007500033838C010C5F1F4FEB89FC89E40FF51F7D
:1007600060817181A601C701800F911F0E943A111B
:10077000C601800F911FB394CACFDF91CF911F9113
:100780000F91FF90EF90DF90CF90BF9008954F9220
:100790005F927F928F929F92AF92BF92CF92DF92A1
:1007A000EF92FF920F931F93CF93DF93EC018B0196
:1007B000DB01FC908A818F1550F4B4E0FB9EB00100
:1007C00011248F8198850E948E0C98878F83FA82DE
:1007D000F8013796F12C44E050E09E012D5F3F4F29
:1007E0008A81BA016C5F7F4F6B01F81670F540810A
:1007F00050E060E070E0742F662755274427DF0142
:1008000013978C91482BDF0112978C91582BDF01A5
:1008100011978C91682B4B835C836D837E83A6013B
:100820006F81788584E0F89E600D711D1124D901D7
:100830008D909D90AD90BC90DB018D929D92AD927C
:10084000BC921397F3943496CBCFF801E40FF51FC5
:10085000F08089858F1550F484E0F89EB001112452
:100860008E859F850E948E0C9F878E879601F986C4
:1008700080E0FE013A969985D801A20FB31FA90125
:100880004C5F5F4F6A01891748F511969C9111974B
:1008900012964C91129750E060E070E0BA01552733
:1008A0004427592B9C91492B13969C91792B4A876D
:1008B0005B876C877D879601AE85BF8594E0899FB5
:1008C000A00DB11D112440815181628173814D932E
:1008D0005D936D937C9313978F5FCDCFFC90888948
:1008E0008F1550F46F2D70E0660F771F8B899C89F0
:1008F0000E948E0C9C8B8B8BC601F88A712C2E016A
:1009000051E1450E511C2889721608F044C0F801C7
:10091000E80FF91FC080D180E280F3800496F801CF
:10092000E80FF91FAC01662757FD6095762F4C0D37
:100930005D1D6E1D7F1D9F01201B310B4901A12CE8
:10094000B12C84169506A606B70638F4B1909F011F
:1009500022503109D901BC92EECFC80ED91EF80140
:10096000EC0DFD1D319710829C0121503109200FA3
:10097000311F3A8B298BC6013B892C89E32FF22F3B
:10098000E70DF11DE70DF11DD2012D913C91318351
:1009900020837394B8CFDF91CF911F910F91FF9077
:1009A000EF90DF90CF90BF90AF909F908F907F900F
:1009B0005F904F900895CF93FC01C2816C2F6170BE
:1009C00085E10E942F0CC1FB662760F984E10E943B
:1009D0002F0CC2FB662760F983E10E942F0CC3FB3A
:1009E000662760F982E10E942F0CC4FB662760F93C
:1009F00081E10E942F0CC5FB662760F980E1CF9151
:100A00000C942F0CAF92BF92CF92DF92EF92FF9295
:100A10000F931F93CF93DF9300D000D01F92CDB7D9
:100A2000DEB78C017B01643671053CF0FC01EE54AD
:100A3000FD4F8081882309F486C0DA01ED91FC9195
:100A40000190F081E02DB8016D5C7E4FCA010995DF
:100A50006801B4EDCB1ABEEFDB0A2FEFF60120835D
:100A60002EEFF801E35DFE4F2083F801E25DFE4FBB
:100A70008083F801E15DFE4F1082F801E05DFE4FDA
:100A8000282F20952083F801EF5CFE4FE082F801CB
:100A9000EE5CFE4F108225E030E040E050E0BC010B
:100AA0006A5F7F4F621773075CF0F801E20FF31F74
:100AB000E45DFE4FE0814E0F511D2F5F3F4FF2CF9F
:100AC0007C01F8E0EF0EF11C800F911FFC01ED5C42
:100AD000FE4F4095408329E1E21621E0F206CCF476
:100AE0005601C5018C199D098E159F0584F4D80106
:100AF00012968D919C911397F50161915F01DC0134
:100B0000ED91FC910190F081E02D0995EACFC701AC
:100B10001CC08FEA92E09A83898383E08B8382E210
:100B200092E09D838C83D801ED91FC910190F0813E
:100B3000E02DAE014F5F5F4F67E070E0C80109959F
:100B40008FEF9FEF02C080E090E00F900F900F902A
:100B50000F900F90DF91CF911F910F91FF90EF9029
:100B6000DF90CF90BF90AF90089561E085E10E9443
:100B7000F60B61E084E10E94F60B61E083E10E94E4
:100B8000F60B61E082E10E94F60B61E080E10E94D9
:100B9000F60B83E080931C038AE193E00E94DB0460
:100BA00060E087E00E94F60B61E087E00E942F0C76
:100BB00080E09BE4A0E0B0E08093240390932503C1
:100BC000A0932603B093270340E05BE460E070E06D
:100BD00080912203909123030E94B40F1092C905C3
:100BE0001092C8051092CB051092CA051092CF053D
:100BF0001092CE051092CD051092CC05E4E6F5E0FA
:100C000080E090E021913191232BB1F4FC01EE0FB3
:100C1000FF1FEC59FA4F20E133E0318320838358E2
:100C20009F4F909315038093140380E293E0909379
:100C300017038093160304C001968931910511F7BB
:100C4000E6E9F5E080E090E021913191232B81F4F9
:100C5000FC01EE0FFF1FEA56FA4F23E033E0318329
:100C600020838C599F4F909306038093050304C003
:100C700001968931910541F710921F0308950F9352
:100C80001F93CF93DF93CDB7DEB72A970FB6F894B3
:100C9000DEBF0FBECDBF8C0187E992E09A838983C6
:100CA0001B821C821D821E821F82188619861A864C
:100CB000D801ED91FC910190F081E02DAE014F5FE4
:100CC0005F4F6AE070E0C80109950E943D0BF80192
:100CD00060877187828793872A960FB6F894DEBF64
:100CE0000FBECDBFDF91CF911F910F9108954F920D
:100CF0005F926F927F928F929F92AF92BF92CF92AC
:100D0000DF92EF92FF920F931F93CF93DF93CDB7B4
:100D1000DEB72E970FB6F894DEBF0FBECDBF8C01A5
:100D200083EA92E09A838983580182E3A80EB11C7A
:100D3000780148E1442E55245394612C712C6701AD
:100D4000ACEBCA1AADEFDA0AD601ED91FC913097FF
:100D5000B9F1848195819C838B83808191819E836D
:100D60008D8382819381DC01ED91FC910480F5817A
:100D7000E02D099598878F83D601ED91FC918281B2
:100D80009381DC01ED91FC910680F781E02D0995BE
:100D90009A8789874B865C866D867E86F80180817E
:100DA0009181F601A081B18118966D917C9119977E
:100DB000DC01ED91FC91AE014F5F5F4FC8010995D9
:100DC000B2E0EB0EF11CEA14FB0409F0B8CF780195
:100DD00038E1432E55245394612C712C6701EAE8C5
:100DE000CE1AEDEFDE0AF601A081B1811097E1F194
:100DF00012968D919C9113979C838B8314968D9161
:100E00009C9115979E838D83ED91FC9111970480A1
:100E1000F581E02DCD01099598878F83D6018D91BD
:100E20009C91DC01ED91FC910680F781E02D099504
:100E30009A8789874B865C866D867E86D801ED9180
:100E4000FC9180809180F60180819181DC01ED919F
:100E5000FC910280F381E02D0995AE014F5F5F4F59
:100E6000BC01C801F4010995F2E0EF0EF11CEA148F
:100E7000FB0409F0B3CFF801EE54FD4F81E080830D
:100E80002E960FB6F894DEBF0FBECDBFDF91CF9187
:100E90001F910F91FF90EF90DF90CF90BF90AF9098
:100EA0009F908F907F906F905F904F9008958F925A
:100EB0009F92AF92BF92CF92DF92EF92FF920F93E9
:100EC0001F93CF93DF93CDB7DEB72A970FB6F89471
:100ED000DEBF0FBECDBF8C015B0187E992E09A8334
:100EE00089831B821C821D821E821F82188619869E
:100EF0001A860E943D0B6B017C01F801808591856B
:100F0000A285B385C81AD90AEA0AFB0AB501CE013F
:100F100001960E94AF0058EE852E53E0952EA12C2D
:100F2000B12CC701B601A50194010E94E41069012A
:100F30007A019B01AC018B819C81AD81BE818C0DBE
:100F40009D1DAE1DBF1D8B839C83AD83BE8360E45E
:100F500072E48FE090E00E94C010CF80D884E984D2
:100F6000FA84C60ED71EE81EF91ECF82D886E986FF
:100F7000FA860E943D0BCB80DC80ED80FE80F1E0A4
:100F8000CF1AD108E108F108A50194010E94E410EC
:100F900049015A019B01AC01C818D908EA08FB08AD
:100FA000F801C486D586E686F786CF80D884E984A2
:100FB000FA84F6E3DF1AF5E6EF0AF4ECFF0A60E4E0
:100FC00072E48FE090E00E94C010C61AD70AE80AC7
:100FD000F90AF801C08AD18AE28AF38AB801605F0F
:100FE0007F4FC8010C960E94C50A0E943D0BF80174
:100FF000E954FD4F60837183828393832A960FB6F1
:10100000F894DEBF0FBECDBFDF91CF911F910F913E
:10101000FF90EF90DF90CF90BF90AF909F908F9018
:1010200008952F923F924F925F926F927F928F928C
:101030009F92AF92BF92CF92DF92EF92FF920F9367
:101040001F93CF93DF93CDB7DEB760970FB6F894B9
:10105000DEBF0FBECDBF988B8F870E943D0B2B014B
:101060003C012F85388929543D4F3A832983F90162
:1010700080819181A281B381A3019201281B390B48
:101080004A0B5B0BDA01C901893F9A42A105B10500
:1010900028F0EF85F889EE54FD4F10820F851889EE
:1010A00008551D4FD8018D919C91892B81F0EF85BA
:1010B000F889E554FD4F80819181A281B381841527
:1010C0009505A605B70518F4F80111821082CF84A2
:1010D000D888F0E5CF1AFDEFDF0AAF84B88824E5A1
:1010E000A21A2DEFB20A4F8558894E545D4F5C838A
:1010F0004B832F85388920543D4F38872F834F8568
:10110000588941545D4F5A874987EF84F88856E5DE
:10111000E51A5DEFF50AA30192012C5E3F4F4F4F98
:101120005F4F2B873C874D875E872F84388834E15B
:10113000230E311C8F84988842E5841A4DEF940A5F
:101140002F85388925543D4F3E832D83AF85B8893F
:1011500012968D919C911397DC01ED91FC91068084
:10116000F781E02D09959C0197FD13C1F60180815F
:101170009181820F931F91838083D8014D915C915F
:1011800047305105A9F4F40180819181AC014F5F92
:101190005F4F51834083EF85F889E80FF91F248B57
:1011A000D7018D919C91119701978D939C938AC043
:1011B00041155105A9F42F3F310509F0B6CF81E063
:1011C00090E0D8018D939C932B853C854D855E8561
:1011D000AD81BE812D933D934D935C931397B6CF14
:1011E0004130510599F42E3F310519F482E090E029
:1011F0002EC0D8011D921C92EB81FC81808181114F
:1012000094CF8F8598890E943F06A0CF4230510528
:1012100079F4D7012D933C93F4011182108283E07D
:1012200090E0D8018D939C93F601318320838ECF7B
:101230004330510581F4322F2227D7018D919C91A3
:101240001197820F931F8D939C9384E090E0F80197
:10125000918380837BCF4430510589F460E071E055
:101260000E94D0108F3F910531F485E090E0D801C5
:101270008D939C936BCFF8011182108267CF45301C
:10128000510561F4D5012D933C9386E090E0F8017F
:1012900091838083D6012D933C9358CF46305105DE
:1012A000C1F4322F2227F50180819181820F931F93
:1012B00091838083E7E0F0E0D801ED93FC93D701C0
:1012C0008D919C91892B09F030CF28E030E0F80116
:1012D000ACCF4830510509F028CFD8011D921C929F
:1012E00060E071E00E94D0108F3F910509F01DCFA2
:1012F000D501ED91FC913097C9F48F8598890E94B2
:101300003F068F8598890E947706EF85F889ED540E
:10131000FD4F4082518262827382E981FA8140826C
:101320005182628273828FEF9FEF5CC0EA30F105D9
:1013300031F4B1018F8598890E94570707CFE630B5
:10134000F10551F4B1018F8198850E94C70381E0B6
:10135000A985BA858C93FACEEB30F10521F4EB81A7
:10136000FC811082F3CEE952FF4FEE0FFF1F2F8555
:101370003889E20FF31F80819181009709F4D5CE5F
:10138000DC01ED91FC910190F081E02DB101099516
:10139000DDCEEF85F889EE54FD4F8081882301F181
:1013A0000F8518890D541D4FF80180819181A2810C
:1013B000B381A3019201281B390B4A0B5B0BDA01A5
:1013C000C901853C9940A105B10550F08F859889E8
:1013D0000E943F06D8014D925D926D927C921397C8
:1013E00080E090E060960FB6F894DEBF0FBECDBFF0
:1013F000DF91CF911F910F91FF90EF90DF90CF90F1
:10140000BF90AF909F908F907F906F905F904F9024
:101410003F902F90089580910203811129C08091FF
:101420001F0381110AC087E00E94650C21E0892B0F
:1014300009F020E020931F031BC0809116039091B8
:101440001703DC01ED91FC91609114037091150379
:101450000190F081E02D4DE153E0099580E3809308
:101460001C038AE193E00E94DB0481E08093020385
:1014700080E293E00E94110865E070E080E090E077
:101480000C946C0B8FED92E09093210380932003DA
:101490008EEF95E0909323038093220380E091EEFA
:1014A000A0E0B0E08093240390932503A09326034B
:1014B000B09327031092D2058BEB92E09093E10555
:1014C0008093E005E4E6F5E01192119285E0E639BB
:1014D000F807D1F7E6E9F5E01192119285E0E83CD2
:1014E000F807D1F7E4E3F3E0119284E0EC34F80775
:1014F000D9F7ECE4F4E0119285E0E436F807D9F787
:101500001092E2051092E8051092E7051092E905A5
:101510001092EF051092EE0583ED92E090931E037A
:1015200080931D0387EC92E090931B0380931A0332
:101530002BE532E030931103209310032DE133E0CB
:10154000309313032093120310921903109218037F
:1015500029EE32E0309304032093030390930A03AF
:10156000809309038BED94E090930D0380930C031B
:1015700081E090E090930F0380930E038AE692E05F
:1015800090930803809307030895CF92DF92EF9220
:10159000FF920F931F93CF93DF938C01EB01688130
:1015A00079818A819B8120E03AEC4AE95BE30E94E1
:1015B000E410F801C080D180E280F380C20ED31E17
:1015C000E41EF51EC082D182E282F38268837983B1
:1015D0008A839B83DF91CF911F910F91FF90EF90B2
:1015E000DF90CF9008951F920F920FB60F921124A3
:1015F0002F933F938F939F93AF93BF938091F60563
:101600009091F705A091F805B091F9053091F50595
:1016100023E0230F2D3720F40196A11DB11D05C035
:1016200026E8230F0296A11DB11D2093F505809396
:10163000F6059093F705A093F805B093F90580910E
:10164000FA059091FB05A091FC05B091FD0501966E
:10165000A11DB11D8093FA059093FB05A093FC0595
:10166000B093FD05BF91AF919F918F913F912F91C5
:101670000F900FBE0F901F9018952FB7F8946091A0
:10168000F6057091F7058091F8059091F9052FBF47
:1016900008953FB7F8948091FA059091FB05A091C9
:1016A000FC05B091FD0526B5A89B05C02F3F19F09C
:1016B0000196A11DB11D3FBF6627782F892F9A2F54
:1016C000620F711D811D911D42E0660F771F881FFB
:1016D000991F4A95D1F70895CF92DF92EF92FF922A
:1016E000CF93DF936B017C010E94490BEB01C11486
:1016F000D104E104F10479F00E94490B6C1B7D0BCD
:10170000683E7340A0F381E0C81AD108E108F108EF
:10171000C851DC4FECCFDF91CF91FF90EF90DF907D
:10172000CF900895789484B5826084BD84B581603B
:1017300084BD85B5826085BD85B5816085BDEEE6D9
:10174000F0E0808181608083E1E8F0E010828081B8
:1017500082608083808181608083E0E8F0E0808126
:1017600081608083E1EBF0E0808184608083E0EB46
:10177000F0E0808181608083EAE7F0E0808184602E
:10178000808380818260808380818160808380818A
:10179000806880831092C1000895833081F028F41E
:1017A000813099F08230A1F008958630A9F0873019
:1017B000B9F08430D1F4809180008F7D03C0809196
:1017C00080008F7780938000089584B58F7702C062
:1017D00084B58F7D84BD08958091B0008F7703C05C
:1017E0008091B0008F7D8093B0000895CF93DF93F8
:1017F00090E0FC01E458FF4F2491FC01E057FF4FBB
:101800008491882349F190E0880F991FFC01E854E6
:10181000FF4FA591B49182559F4FFC01C591D49182
:101820009FB7611108C0F8948C91209582238C9306
:10183000888182230AC0623051F4F8948C91322F4F
:10184000309583238C938881822B888304C0F894FD
:101850008C91822B8C939FBFDF91CF9108950F9332
:101860001F93CF93DF931F92CDB7DEB7282F30E0C1
:10187000F901E859FF4F8491F901E458FF4F1491A1
:10188000F901E057FF4F04910023C9F0882321F0AC
:1018900069830E94CD0B6981E02FF0E0EE0FFF1FFE
:1018A000E255FF4FA591B4919FB7F8948C916111C7
:1018B00003C01095812301C0812B8C939FBF0F9093
:1018C000DF91CF911F910F910895CF93DF93282F30
:1018D00030E0F901E859FF4F8491F901E458FF4FD6
:1018E000D491F901E057FF4FC491CC2391F08111BD
:1018F0000E94CD0BEC2FF0E0EE0FFF1FEC55FF4FD9
:10190000A591B4912C912D2381E090E021F480E009
:1019100002C080E090E0DF91CF9108956F927F92B6
:101920008F929F92AF92BF92CF92DF92EF92FF92EF
:101930000F931F93CF93DF93EC01CB01209781F49A
:10194000DF91CF911F910F91FF90EF90DF90CF909B
:10195000BF90AF909F908F907F906F900C94770D79
:10196000FE01E60FF71F9E0122503109E217F3072F
:1019700008F4ACC0D9010D911C91119706171707F7
:10198000B8F00530110508F49FC0A8014450510972
:101990004617570708F498C002501109061B170B89
:1019A000019311936D937C93CF010E940F0E8CC015
:1019B0005B01A01AB10A4E01800E911EA091AA06E9
:1019C000B091AB06612C712C60E070E0109709F4C7
:1019D00049C0A815B905C9F5ED90FC9011976701AC
:1019E00042E0C40ED11CCA14DB0478F147018A1806
:1019F0009B08640142E0C40ED11C1296BC90129761
:101A00001396AC91B5E0CB16D10440F0B282A3831B
:101A100091828082D9018D939C9309C00E5F1F4FE4
:101A20000E0D1F1DF90111830083EB2DFA2F611597
:101A3000710531F0DB011396FC93EE93129744C0CD
:101A4000F093AB06E093AA063FC06D917C9111978D
:101A50006616770608F43B01BD0112960D90BC9105
:101A6000A02DB4CF6091A8067091A90668157905DC
:101A7000E9F468167906D0F4409100015091010113
:101A80004115510541F44DB75EB760910401709165
:101A90000501461B570BE417F507C0F4F093A906A0
:101AA000E093A806F901918380830EC00E94770D10
:101AB0007C01009759F0A801BE010E943A11CE01A5
:101AC0000E940F0EC70104C0CE0102C080E090E06A
:101AD000DF91CF911F910F91FF90EF90DF90CF900A
:101AE000BF90AF909F908F907F906F900895CF930D
:101AF000DF938230910510F482E090E0E091AA0635
:101B0000F091AB0620E030E0A0E0B0E0309739F192
:101B10004081518148175907B8F04817590771F4A7
:101B200082819381109729F013969C938E9312973C
:101B30002CC09093AB068093AA0627C021153105CF
:101B400031F04217530718F0A901DB0101C0EF0182
:101B50009A01BD01DF010280F381E02DD7CF21156D
:101B60003105F9F0281B390B2430310580F48A81C6
:101B70009B816115710521F0FB019383828304C071
:101B80009093AB068093AA06FE01329644C0FE01F4
:101B9000E20FF31F819391932250310939832883F7
:101BA0003AC02091A8063091A906232B41F4209138
:101BB0000201309103013093A9062093A8062091D9
:101BC0000001309101012115310541F42DB73EB7D7
:101BD0004091040150910501241B350BE091A806AA
:101BE000F091A906E217F307A0F42E1B3F0B28176C
:101BF000390778F0AC014E5F5F4F2417350748F086
:101C00004E0F5F1F5093A9064093A80681939193AE
:101C100002C0E0E0F0E0CF01DF91CF910895CF93D3
:101C2000DF93009709F487C0FC0132971382128278
:101C3000C091AA06D091AB06209781F42081318112
:101C4000280F391F8091A8069091A9068217930743
:101C500079F5F093A906E093A8066DC0DE0120E0B7
:101C600030E0AE17BF0750F412964D915C91139778
:101C70009D014115510509F1DA01F3CFB383A28328
:101C800040815181840F951F8A179B0771F48D91B4
:101C90009C911197840F951F0296918380831296D1
:101CA0008D919C911397938382832115310529F49B
:101CB000F093AB06E093AA063EC0D9011396FC93BD
:101CC000EE9312974D915D91A40FB51FEA17FB0794
:101CD00079F480819181840F951F0296D901119624
:101CE0009C938E938281938113969C938E931297EB
:101CF000E0E0F0E08A819B81009719F0FE01EC01A1
:101D0000F9CFCE01029628813981820F931F20914D
:101D1000A8063091A9062817390769F4309729F4E5
:101D20001092AB061092AA0602C013821282D093C0
:101D3000A906C093A806DF91CF910895FC012485E0
:101D40003585F901E05CFF4F80819181F901EE5BFF
:101D5000FF4F20813181821B930B8F739927089548
:101D6000FC0184859585FC01E05CFF4F4081518139
:101D7000FC01EE5BFF4F208131814217530741F098
:101D80000190F081E02DE80FF91F808190E0089527
:101D90008FEF9FEF0895FC0184859585FC01E05C41
:101DA000FF4F40815181FC01EE5BFF4F208131816B
:101DB0004217530779F0A081B181A80FB91F8C9108
:101DC000208131812F5F3F4F2F7333273183208351
:101DD00090E008958FEF9FEF0895FC0181A1882383
:101DE00029F0A489B5898C9186FFFBCF11A20895B3
:101DF000CF93DF93FC0126853785D901A05CBF4FC7
:101E00008D919C91119701968F739927E901CE5B73
:101E1000DF4F4881598184179507D9F30D90BC9104
:101E2000A02DA20FB31F6C93A685B785A05CBF4FF2
:101E300011969C938E93A689B7892C9181E090E0AE
:101E4000078C02C0880F991F0A94E2F7282B2C9365
:101E500081E081A30488F589E02D808180648083FE
:101E600081E090E0DF91CF91089508951F920F9245
:101E70000FB60F9211242F933F934F938F939F93FD
:101E8000EF93FF938091C00082FD1CC04091C6007B
:101E90008091A4069091A50601968F7399272091B1
:101EA000A6063091A7068217930771F0E091A40669
:101EB000F091A506EC59F94F40839093A5068093C5
:101EC000A40602C08091C600FF91EF919F918F916F
:101ED0004F913F912F910F900FBE0F901F9018952B
:101EE0008EEF95E00E949E0E892B11F00C94350F19
:101EF00008951F920F920FB60F9211242F933F93C4
:101F00008F939F93EF93FF9320916006309161062A
:101F100080916206909163062817390731F4809109
:101F2000C1008F7D8093C10014C0E0916206F091E2
:101F30006306E05EF94F208180916206909163060E
:101F400001968F739927909363068093620620937E
:101F5000C600FF91EF919F918F913F912F910F902C
:101F60000FBE0F901F901895CF92DF92EF92FF92C5
:101F7000CF93DF93EC016A017B01411581EE580795
:101F800061057105F9F0EC89FD8981E090E008A018
:101F900002C0880F991F0A94E2F7808360E079E01D
:101FA0008DE390E0A70196010E94E41021503109D1
:101FB000410951095695479537952795211580E197
:101FC000380798F0EC89FD89108260E874E88EE1AA
:101FD00090E0A70196010E94E410215031094109C7
:101FE00051095695479537952795E889F9893083A2
:101FF000EA89FB89208319A2EE89FF89408181E06B
:1020000090E09C010C8C02C0220F331F0A94E2F76F
:10201000422B4083EE89FF8940819C010D8C02C0D8
:10202000220F331F0A94E2F7422B4083EE89FF8987
:1020300040819C010E8C02C0220F331F0A94E2F7EC
:10204000422B4083EE89FF8920810F8C02C0880FCC
:10205000991F0A94E2F7809582238083DF91CF91C4
:10206000FF90EF90DF90CF900895109201061092AC
:10207000000688EE93E0A0E0B0E080930206909323
:102080000306A0930406B093050685EF92E09093B3
:10209000FF058093FE0584E696E090930B068093FF
:1020A0000A0680E296E090930D0680930C0685EC7C
:1020B00090E090930F0680930E0684EC90E090934E
:1020C00011068093100680EC90E0909313068093A5
:1020D000120681EC90E0909315068093140682EC32
:1020E00090E0909317068093160686EC90E090930C
:1020F00019068093180684E080931A0683E0809383
:102100001B0687E080931C0685E080931D0681E016
:1021100080931E060895CF92DF92EF92FF920F9365
:102120001F93CF93DF936C017A01EB01E60EF71E4C
:1021300000E010E0CE15DF0561F06991D601ED9168
:10214000FC910190F081E02DC6010995080F191F3F
:10215000F1CFC801DF91CF911F910F91FF90EF90C8
:10216000DF90CF9008950E94920B0E94B505C0E7C2
:10217000DFE00E940B0A2097E1F30E94700FF9CF75
:10218000DB018F939F930E940611BF91AF91A29F95
:10219000800D911DA39F900DB29F900D1124089565
:1021A00097FB072E16F4009407D077FD09D00E9404
:1021B000111107FC05D03EF4909581959F4F08952D
:1021C000709561957F4F0895A1E21A2EAA1BBB1B43
:1021D000FD010DC0AA1FBB1FEE1FFF1FA217B307F3
:1021E000E407F50720F0A21BB30BE40BF50B661F09
:1021F000771F881F991F1A9469F7609570958095CD
:1022000090959B01AC01BD01CF0108950E942B1157
:10221000A59F900DB49F900DA49F800D911D11243A
:102220000895AA1BBB1B51E107C0AA1FBB1FA6171D
:10223000B70710F0A61BB70B881F991F5A95A9F76F
:1022400080959095BC01CD010895EE0FFF1F05907C
:10225000F491E02D0994A29FB001B39FC001A39F08
:10226000700D811D1124911DB29F700D811D1124CF
:10227000911D0895FB01DC0102C001900D924150B7
:0A2280005040D8F70895F894FFCFFE
:10228A000000AC0680007374645F6D7367732F542B
:10229A00696D6500636437313636633734633535C3
:1022AA003263333131666263633266653561376240
:1022BA006332383900726F7373657269616C5F6D6E
:1022CA007367732F546F706963496E666F00363394
:1022DA006161356538663162646436663335633602
:1022EA00396665316131623964323865396600723E
:1022FA006F7373657269616C5F6D7367732F4C6F6F
:10230A0067003131616264373331633235393333CF
:10231A00323631636436313833626431326436328C
:10232A00393500396630653938626461363539388D
:10233A003139383664646635336166613761343001
:10234A00653439007374645F6D7367732F427974EF
:10235A006500616437333661326538383138313572
:10236A0034633438376262383066653432636534D0
:10237A003362007374645F6D7367732F426F6F6C9F
:10238A0000386239346331623533646236316662E9
:10239A00366165643430363032386164363333320C
:1023AA0061004D6573736167652066726F6D2064A5
:1023BA0065766963652064726F707065643A206D32
:1023CA00657373616765206C6172676572207468F2
:1023DA00616E206275666665722E002F6D61737478
:1023EA0065722F627574746F6E002F6D61737465F8
:1023FA00722F6C65647300726F7373657269616CB6
:10240A005F6D7367732F526571756573745061726E
:10241A00616D00000000008D00AF00F500F80000BB
:10242A000000006902FB00D301D60100000000F1A0
:10243A0002D9011D022002000000001D03C7032368
:10244A00022602000000002902300237023A020086
:10245A000000003D0244024B024E0200000000024E
:10246A0005110864020000000051025A025E02616E
:10247A000200000000F80E8B109E0ECB0EB00EED7F
:02248A000E0042
:00000001FF
