:100000000C9463000C948B000C948B000C948B006C
:100010000C948B000C948B000C948B000C948B0034
:100020000C948B000C948B000C948B000C948B0024
:100030000C948B000C948B000C948B000C948B0014
:100040000C944D0F0C948B000C9497110C94C811C8
:100050000C948B000C948B000C948B000C948B00F4
:100060000C948B000C948B000000000024002700EF
:100070002A0000000000250028002B0000000000DE
:1000800023002600290004040404040404040202DA
:100090000202020203030303030301020408102007
:1000A0004080010204081020010204081020000012
:1000B0000007000201000003040600000000000029
:1000C0000000E30E8D1211241FBECFEFD8E0DEBF7B
:1000D000CDBF13E0A0E0B1E0ECE5FCE202C005908A
:1000E0000D92A830B107D9F716E0A8E0B3E001C03F
:1000F0001D92A73BB107E1F710E0C6ECD0E004C0C9
:100100002297FE010E94EA13C23CD107C9F70E9460
:10011000CA120C942C160C940000FC01DB018281A5
:100120008C93838111968C931197848112968C9372
:100130001297858113968C931397868114968C93CE
:100140001497878115968C931597808516968C93B6
:100150001697818517968C93179788E090E00895FD
:10016000EF92FF920F931F93FC01DB012C9130E083
:1001700040E050E0228333834483558311966C9191
:10018000119770E080E090E0982F872F762F6627F8
:10019000622B732B842B952B6283738384839583CB
:1001A00012962C91129730E040E050E0A9013327DD
:1001B0002227262B372B482B592B2283338344832A
:1001C000558313966C91139770E080E090E0962F22
:1001D000882777276627622B732B842B952B6283C6
:1001E00073838483958314962C91149730E040E0B8
:1001F00050E026833783408751871596EC901597FA
:10020000FF2400E010E0102F0F2DFE2CEE24E22A38
:10021000F32A042B152BE682F782008711871696A6
:100220002C91169730E040E050E0A90133272227B7
:100230002E293F29402B512B268337834087518716
:1002400017968C9190E0A0E0B0E0B82FAA279927EC
:100250008827822B932BA42BB52B86839783A0878B
:10026000B18788E090E01F910F91FF90EF90089583
:1002700080E091E008958EE091E00895AF92BF9202
:10028000CF92DF92EF92FF920F931F93CF93DF9362
:100290005C01FB01208130E0DC0113963C932E933E
:1002A0001297918180E0822B932B13969C938E93CF
:1002B000129782819381A481B5818B010B5F1F4FBF
:1002C000E80166E070E026E0C22ED12CE12CF12C92
:1002D000C80ED91EEA1EFB1E04C0298129936F5F38
:1002E0007F4F9B0140E050E02C153D054E055F051A
:1002F000A0F3AC014A5F5F4F4E0F5F1F9A01215080
:100300003040E9011882E5011D830C83EA01C880B1
:10031000D980EA80FB80BC01665F7F4FEC012996A3
:10032000CE0FDF1F8B01CB01AA2797FDA095BA2F17
:100330008C0D9D1DAE1DBF1D04C0298129930F5F2B
:100340001F4F980140E050E0281739074A075B0724
:10035000A0F3EB01CC0DDD1D9F012C0F3D1FC9014A
:100360000197DC011C92615070406E0F7F1FD50118
:1003700017967C936E931697D901CD90DD90ED90F2
:10038000FC90BE016C5F7F4F2396CE0FDF1F8B0169
:10039000CB01AA2797FDA095BA2F8C0D9D1DAE1DF0
:1003A000BF1D04C0298129930F5F1F4F980140E0B2
:1003B00050E0281739074A075B07A0F3C60ED71E7F
:1003C000DF01AC0DBD1DED01219718826150704019
:1003D0006E0F7F1FE5017987688711962C91119721
:1003E00030E040E050E0542F432F322F2227129666
:1003F0006C91129770E080E090E0CB017727662740
:10040000262B372B482B592B6C9170E080E090E025
:10041000262B372B482B592B13968C9190E0A0E07C
:10042000B0E0B82FAA2799278827282B392B4A2BE9
:100430005B2BF501228733874487558784E090E062
:10044000C80ED91EC601DF91CF911F910F91FF9069
:10045000EF90DF90CF90BF90AF9008958FE291E042
:10046000089588E491E008958F929F92AF92BF9291
:10047000CF92DF92EF92FF920F931F93CF93DF9370
:100480006C01FB018081D60112968C931297E1805A
:10049000F28003811481AB014C5F5F4FEA0125E0DC
:1004A00030E065E0862E912CA12CB12C8E0C9F1C87
:1004B000A01EB11E04C0898189932F5F3F4FC901DF
:1004C000A0E0B0E088159905AA05BB05A0F3970147
:1004D0002B5F3F4FE20FF31F31971082F6015483D9
:1004E0004383C901DF91CF911F910F91FF90EF904E
:1004F000DF90CF90BF90AF909F908F90089589E646
:1005000091E008958CE791E0089587EB92E00895DB
:100510008DE991E008958F929F92AF92BF92CF9212
:10052000DF92EF92FF920F931F93CF93DF934C01D3
:10053000EB01FC01E280F38004811581D801C70141
:10054000F7E1B595A79597958795FA95D1F79070AE
:10055000A070B0700097A105B10521F080589C4FA4
:10056000AF4FBF4F188219821A82A8019701E5E0A8
:10057000220F331F441F551FEA95D1F72B83A80183
:10058000970173E055954795379527957A95D1F75B
:100590002C83A80197016BE05595479537952795D2
:1005A0006A95D1F72D835C016D0124E0AA0CBB1C78
:1005B000CC1CDD1C2A95D1F7A801970103E15595C4
:1005C0004795379527950A95D1F72F702A292E83BD
:1005D00014E0B595A795979587951A95D1F7182F9B
:1005E0001F771F83F401628173818481958120E0EC
:1005F00030E0A9010E94031387FF02C010681F8327
:10060000F401E680F78000851185D801C701F7E184
:10061000B595A79597958795FA95D1F79070A070A5
:10062000B0700097A105B10521F080589C4FAF4FE5
:10063000BF4F188619861A86A8019701E5E0220F98
:10064000331F441F551FEA95D1F72B87A801970147
:1006500073E055954795379527957A95D1F72C876F
:10066000A80197016BE055954795379527956A95B1
:10067000D1F72D875C016D0124E0AA0CBB1CCC1CBA
:10068000DD1C2A95D1F7A801970103E155954795FF
:10069000379527950A95D1F72F702A292E8714E0D0
:1006A000B595A795979587951A95D1F7182F1F7728
:1006B0001F87F401668177818085918520E030E095
:1006C000A9010E94031387FF02C010681F87F4016D
:1006D000E284F38404851585D801C701F7E1B59557
:1006E000A79597958795FA95D1F79070A070B070FF
:1006F0000097A105B10521F080589C4FAF4FBF4F27
:10070000188A198A1A8AA8019701E5E0220F331F77
:10071000441F551FEA95D1F72B8BA801970173E071
:1007200055954795379527957A95D1F72C8BA80144
:1007300097016BE055954795379527956A95D1F7C1
:100740002D8B5C016D01F4E0AA0CBB1CCC1CDD1CE4
:10075000FA95D1F7A8019701E3E1559547953795AB
:100760002795EA95D1F72F702A292E8B74E0B5953D
:10077000A795979587957A95D1F7182F1F771F8B97
:10078000F401628573858485958520E030E0A901B8
:100790000E94031387FF02C010681F8B88E190E05E
:1007A000DF91CF911F910F91FF90EF90DF90CF904D
:1007B000BF90AF909F908F900895EF92FF920F930C
:1007C0001F93CF93DF93FC01EB018B81829586957C
:1007D000877090E0A0E0B0E082839383A483B58328
:1007E0002C8130E040E050E063E0220F331F441FD3
:1007F000551F6A95D1F7282B392B4A2B5B2B228367
:100800003383448355838D8190E0A0E0B0E00BE01A
:10081000880F991FAA1FBB1F0A95D1F7822B932B14
:10082000A42BB52B82839383A483B5832E8130E0E0
:1008300040E050E02F7030704070507013E1220F94
:10084000331F441F551F1A95D1F7282B392B4A2BDC
:100850005B2B2283338344835583EE80E2947FE0D5
:10086000E722FF2400E010E08F8190E0A0E0B0E0FC
:100870008F779070A070B07064E0880F991FAA1FE6
:10088000BB1F6A95D1F78E299F29A02BB12B00970A
:10089000A105B10599F080589340A040B04077E1A0
:1008A000880F991FAA1FBB1F7A95D1F7822B932B14
:1008B000A42BB52B82839383A483B5838F8187FF79
:1008C00009C082819381A481B581B05882839383CA
:1008D000A483B5832B8522952695277030E040E0D0
:1008E00050E026833783408751878C8590E0A0E0D5
:1008F000B0E063E0880F991FAA1FBB1F6A95D1F76C
:10090000822B932BA42BB52B86839783A087B1874B
:100910002D8530E040E050E00BE0220F331F441FF4
:10092000551F0A95D1F7282B392B4A2B5B2B268391
:100930003783408751878E8590E0A0E0B0E08F70CC
:100940009070A070B07013E1880F991FAA1FBB1F91
:100950001A95D1F7822B932BA42BB52B86839783E3
:10096000A087B187EE84E2947FE0E722FF2400E0D5
:1009700010E02F8530E040E050E02F77307040707D
:10098000507064E0220F331F441F551F6A95D1F742
:100990002E293F29402B512B2115310541055105A9
:1009A00099F0205833404040504077E1220F331FE8
:1009B000441F551F7A95D1F7282B392B4A2B5B2BD7
:1009C00026833783408751878F8587FF09C08681BB
:1009D0009781A085B185B05886839783A087B1871A
:1009E0002B8922952695277030E040E050E0228741
:1009F0003387448755878C8990E0A0E0B0E063E0BE
:100A0000880F991FAA1FBB1F6A95D1F7822B932BC2
:100A1000A42BB52B82879387A487B5872D8930E0D7
:100A200040E050E00BE0220F331F441F551F0A9592
:100A3000D1F7282B392B4A2B5B2B2287338744870E
:100A400055878E8990E0A0E0B0E08F709070A07024
:100A5000B07013E1880F991FAA1FBB1F1A95D1F719
:100A6000822B932BA42BB52B82879387A487B587E2
:100A7000EE88E2947FE0E722FF2400E010E02F8977
:100A800030E040E050E02F7730704070507064E00C
:100A9000220F331F441F551F6A95D1F72E293F2976
:100AA000402B512B211531054105510599F0205856
:100AB00033404040504017E1220F331F441F551F61
:100AC0001A95D1F7282B392B4A2B5B2B228733879A
:100AD000448755878F8987FF09C082859385A485C0
:100AE000B585B05882879387A487B58788E190E061
:100AF000DF91CF911F910F91FF90EF9008958EEBB2
:100B000091E0089582ED91E00895FC018281FB015E
:100B1000808381E090E00895FB012081FC01228325
:100B200081E090E0089583EF91E0089581E092E004
:100B300008950F931F93CF93DF93EC018C010A5F0D
:100B40001F4FC8010E94DD03EC89FD89C80109958A
:100B5000DF91CF911F910F910895FC0186899789AC
:100B600008958EEB91E0089582ED91E00895FC01E7
:100B7000EE54FD4F80810895CF92DF92EF92FF9265
:100B80000F931F93CF93DF93EC018B018A81DB01DD
:100B90008C938B8111968C93EC81FD81DF010D90FC
:100BA0000020E9F77D010894E108F108EE1AFF0A38
:100BB000C701A0E0B0E0FB0182839383A483B583E7
:100BC0009B012A5F3F4F6C817D81C901A7010E9473
:100BD000EC15EE81FF81DF010D900020E9F76D013A
:100BE0000894C108D108CE1ADF0AF801EE0DFF1DE6
:100BF000C601A0E0B0E086839783A087B187EAE0D2
:100C0000F0E0EE0EFF1E98012E0D3F1D6E817F81DC
:100C1000C901A6010E94EC15EC0CFD1CE885F985C4
:100C2000DF010D900020E9F76D010894C108D1089B
:100C3000CE1ADF0AF801EE0DFF1DC601A0E0B0E0FC
:100C400080839183A283B383E4E0F0E0EE0EFF1E85
:100C500098012E0D3F1D68857985C901A6010E9466
:100C6000EC1597012C0D3D1D5A854B859C858D8576
:100C7000F801E20FF31F50834183928383832C5F3B
:100C80003F4FC901DF91CF911F910F91FF90EF90DE
:100C9000DF90CF900895EF92FF92CF93DF93FC0106
:100CA0008281DB018C93A381B481ED010990002046
:100CB000E9F72197CA1BDB0B9E0140E050E0DB0106
:100CC00011962D933D934D935C9314979B012B5F4D
:100CD0003F4F63817481C901AE010E94EC152596D6
:100CE000CE01DF91CF91FF90EF9008958F929F9268
:100CF000AF92BF92DF92EF92FF920F931F93CF9329
:100D0000DF938C01EB01DC0112968C9112978883A2
:100D100019821A821B827B0120E064E070E021C00E
:100D2000822F90E0880F991F880F991FF801A781E3
:100D3000B085A80FB91F4C9111963C91119712964E
:100D40009C91129713968C91D7014C9311963C93DA
:100D5000119712969C93129713968C936C5F7F4F0A
:100D60002F5FE4E0F0E0EE0EFF1ED80112968C91AA
:100D700012972817A8F2FE01E60FF71F19968C911B
:100D800080836F5F7F4FDE01A60FB71F1C926F5FDE
:100D90007F4FDE01A60FB71F1C926F5F7F4FDE01F2
:100DA000A60FB71F1C926F5F7F4F7F0120E021C00D
:100DB000822F90E0880F991F880F991FF801A68550
:100DC000B785A80FB91F4C9111963C9111971296B7
:100DD0009C91129713968C91D7014C9311963C934A
:100DE000119712969C93129713968C936C5F7F4F7A
:100DF0002F5FE4E0F0E0EE0EFF1ED80119968C9113
:100E000019972817A8F2FE01E60FF71F50968C914C
:100E1000509780836F5F7F4FFE01E60FF71F1082B0
:100E20006F5F7F4FFE01E60FF71F10826F5F7F4FEE
:100E3000FE01E60FF71F10826F5F7F4FDD243AC07F
:100E40008D2C9924880C991CF80183899489880D2C
:100E5000991DDC01EC911196FC91DF010D900020B1
:100E6000E9F77D010894E108F108EE1AFF0ADE01B6
:100E7000A60FB71F970140E050E02D933D934D938F
:100E80005C931397E4E0AE2EB12CA60EB71E9E0124
:100E90002A0D3B1DF801A389B489A80DB91D6C91D9
:100EA00011967C91C901A7010E94EC15B7016A0D4A
:100EB0007B1DD394D80150968C915097D81608F486
:100EC000BFCFCB01DF91CF911F910F91FF90EF909A
:100ED000DF90BF90AF909F908F9008956F927F9218
:100EE0008F929F92AF92BF92CF92DF92EF92FF923A
:100EF0000F931F93CF93DF93EC015B01DB010C9108
:100F00008A81801760F4602F70E0660F771F660F8C
:100F1000771F8F8198850E9421158F8398870A8378
:100F2000F50160E034E0C32ED12C8E010D5F1F4F20
:100F300045C0818190E0A0E0B0E0BA2FA92F982FA2
:100F40008827228130E040E050E0A90133272227A2
:100F5000822B932BA42BB52B208130E040E050E076
:100F6000822B932BA42BB52B238130E040E050E063
:100F7000522F442733272227822B932BA42BB52BC8
:100F80008B839C83AD83BE8384E090E0C80ED91E22
:100F9000862F90E0880F991F880F991F2F81388521
:100FA000280F391FD8016D907D908D909C90D901AC
:100FB0006D927D928D929C9213976F5F34968A8189
:100FC000681708F4B6CF85010C0D1D1DF80180804F
:100FD0008985881560F4682D70E0660F771F660FAD
:100FE000771F8E859F850E9421158E879F8784E0BD
:100FF00090E0C80ED91E8986F80160E08E01065F78
:101000001F4F45C0208130E040E050E0818190E0FA
:10101000A0E0B0E0BA2FA92F982F8827822B932B1E
:10102000A42BB52B228130E040E050E0A90133270A
:101030002227282B392B4A2B5B2B838190E0A0E0C1
:10104000B0E0B82FAA2799278827822B932BA42BAF
:10105000B52B8A879B87AC87BD87A4E0B0E0CA0E1A
:10106000DB1E862F90E0880F991F880F991F2E8511
:101070003F85280F391FD8016D907D908D909C90F1
:10108000D9016D927D928D929C9213976F5F3496E9
:101090008985681708F4B6CFF501EC0DFD1D0081B8
:1010A0008889801750F4602F70E0660F771F8B8956
:1010B0009C890E9421158B8B9C8BF6013496088BA2
:1010C000772401E1802E912C8C0E9D1E41C0D5010C
:1010D000AE0FBF1FCD90DD90ED90FC90DF01149618
:1010E0003396EA0DFB1D8D019D01442737FD409588
:1010F000542F2C0D3D1D4E1D5F1D04C08181819319
:101100000F5F1F4FB80180E090E0621773078407FC
:101110009507A0F3CA0EDB1EC5018C0D9D1D01971E
:10112000FC0110821197AA0DBB1DBA8BA98BF60189
:10113000872D90E0880F991F2B893C89280F391F34
:10114000D4018D919C91D90111969C938E937394A7
:101150008889781608F4BBCFCF01DF91CF911F911A
:101160000F91FF90EF90DF90CF90BF90AF909F9046
:101170008F907F906F900895CF93DF93EC016A81F9
:101180007B818C819D810E94071388E00E947C10E6
:101190006E817F81888599850E94071389E00E946E
:1011A0007C106A857B858C859D850E9407138AE06B
:1011B0000E947C10DF91CF910895CF93DF93FC01C3
:1011C000AB0186819781EC01A881B9816481758129
:1011D000ED91FC910995DF91CF910895FC01428139
:1011E000538164817581808191810E940F120895DD
:1011F000FC0181E892E09183808384E996E0938307
:10120000828320E031EE40E050E024833583468342
:101210005783DF01AE54BD4F1C92DF01A054BD4F78
:101220008FEA92E08D939C93DF01AC5BBD4F89E127
:1012300090E01D921D920197E1F7DF01AA58BD4F82
:1012400089E190E01D921D920197E1F7DF0154962C
:1012500080E090E01D92019621E088319207D1F75D
:10126000DF01A45DBE4F80E090E01D92019621E079
:1012700088319207D1F7DF01AE53BD4F1C92DF01D9
:10128000A953BD4F1D921C92DF01A753BD4F1C9265
:10129000E253FD4F118210820895DB01FC01EC5BEB
:1012A000FD4F20E030E04191519141155105A9F4E5
:1012B000F901EE5DFE4FEE0FFF1FE80FF91FB1833E
:1012C000A08323583F4F15963C932E93149717965F
:1012D0009C938E93169781E008952F5F3F4F29319D
:1012E000310509F780E00895FC01EA58FD4F20E040
:1012F00030E0419151914115510581F4F901E55CCE
:10130000FE4FEE0FFF1FE80FF91F718360832C590A
:101310003F4FFB013383228381E008952F5F3F4FCE
:101320002931310531F780E00895CF93DF9388E0CC
:1013300061E00E94581089E061E00E9458108AE044
:1013400061E00E94581088E061E00E947C1089E012
:1013500060E00E947C108AE060E00E947C1087E0E0
:1013600060E00E94581087E061E00E947C10CCE0B1
:10137000D3E080E09BE4A0E0B0E080930C03909386
:101380000D03A0930E03B0930F03CE0102970E94AA
:10139000EE081092B1051092B0051092B3051092AC
:1013A000B2051092B7051092B6051092B5051092CD
:1013B000B4052497CE0160EE75E00E944D09CE0180
:1013C0006AEE75E00E9474091092DF0568EC70E027
:1013D00080E090E00E94C90F88E060E00E947C10ED
:1013E00089E061E00E947C108AE060E00E947C104D
:1013F000DF91CF9108950F931F93DF93CF93CDB7D4
:10140000DEB72A970FB6F894DEBF0FBECDBF8C01B2
:1014100087E992E09A8389831B821C821D821E8247
:101420001F82188619861A86D801ED91FC910190C9
:10143000F081E02DC8016AE070E0AE014F5F5F4FC0
:1014400009950E94950FF8016087718782879387BD
:101450002A960FB6F894DEBF0FBECDBFCF91DF91B5
:101460001F910F9108954F925F926F927F928F928A
:101470009F92AF92BF92CF92DF92EF92FF920F9323
:101480001F93DF93CF93CDB7DEB72E970FB6F894A7
:10149000DEBF0FBECDBF8C018BE892E09A838983BB
:1014A00044E4E42E42E0F42EE00EF11E36E7632E13
:1014B00032E0732E600E711E28E1822E21E0922E02
:1014C000A12CB12C6E010894C11CD11CD701ED9147
:1014D000FC9111973097A9F1848195819C838B832E
:1014E000808191819E838D8382819381DC01ED9146
:1014F000FC910480F581E02D099598878F83D701B1
:10150000ED91FC9182819381DC01ED91FC9106804B
:10151000F781E02D09959A8789878B869C86AD8611
:10152000BE86F80180819181F701A081B181189672
:101530006D917C911997DC01ED91FC91C801A60198
:101540000995E2E0F0E0EE0EFF1EE614F70409F064
:10155000BDCF96E7E92E92E0F92EE00EF11E88EA63
:10156000482E82E0582E400E511EB8E18B2EB1E07D
:101570009B2EA12CB12C6E010894C11CD11CF7012B
:10158000A081B1811097D1F112968D919C91139702
:101590009C838B8314968D919C9115979E838D834C
:1015A000ED91FC9111970480F581E02DCD01099515
:1015B00098878F83D7018D919C91DC01ED91FC91EF
:1015C0000680F781E02D09959A8789878B869C860E
:1015D000AD86BE86D801ED91FC9160807180F701E7
:1015E00080819181DC01ED91FC910280F381E02DFD
:1015F0000995BC01C801A601F3010995E2E0F0E0FC
:10160000EE0EFF1EE414F50409F0B9CFF801EE5414
:10161000FD4F81E080832E960FB6F894DEBF0FBE9B
:10162000CDBFCF91DF911F910F91FF90EF90DF9091
:10163000CF90BF90AF909F908F907F906F905F9072
:101640004F900895CF92DF92EF92FF920F931F93E6
:10165000CF93DF93EC016B010E94950FF601E080C0
:10166000F180028113810894E108F1080109110950
:1016700028EE33E040E050E00E94B213E21AF30A91
:10168000040B150BEC86FD860E871F87F601E480A0
:10169000F5800681178120E03AEC4AE95BE3E20E2F
:1016A000F31E041F151F20E432E44FE050E00E94B7
:1016B0008013E61AF70A080B190BE88AF98A0A8BD5
:1016C0001B8BBE01605F7F4FCE010C960E941C0FEA
:1016D000DF91CF911F910F91FF90EF90DF90CF900E
:1016E0000895AF92BF92CF92DF92EF92FF920F9345
:1016F0001F93DF93CF93CDB7DEB72A970FB6F89439
:10170000DEBF0FBECDBF5C016B0187E992E09A831B
:1017100089831B821C821D821E821F821886198665
:101720001A860E94950F7B018C01F50180859185B9
:10173000A285B385E81AF90A0A0B1B0BCE010196A4
:10174000B6010E94B000C801B70128EE33E040E0C6
:1017500050E00E94B2137B018C018B819C81AD8192
:10176000BE81820F931FA41FB51F8B839C83AD8303
:10177000BE83C801B70120E432E44FE050E00E948C
:1017800080139B01AC018F819885A985BA85820F52
:10179000931FA41FB51F8F839887A987BA87C50198
:1017A000BE016D5F7F4F0E94220B0E94950FF501D5
:1017B000E954FD4F60837183828393832A960FB629
:1017C000F894DEBF0FBECDBFCF91DF911F910F9177
:1017D000FF90EF90DF90CF90BF90AF9008952F9241
:1017E0003F924F925F926F927F928F929F92AF92B1
:1017F000BF92CF92DF92EF92FF920F931F93DF93EE
:10180000CF93CDB7DEB72E970FB6F894DEBF0FBEDD
:10181000CDBF9E878D870E94950F6B017C01ED8562
:10182000FE85E954FD4F80819181A281B381A7019A
:101830009601281B390B4A0B5B0BDA01C901893F62
:101840003AE2930730E0A30730E0B30728F0ED85D4
:10185000FE85EE54FD4F1082ED85FE85E855FD4F67
:1018600080819181009781F0AD85BE85A554BD4FE3
:101870008D919D910D90BC91A02D8C159D05AE056F
:10188000BF0510F41182108220EB822E22E0922EEE
:101890004D855E85840E951E8A0108551D4F9CEA74
:1018A000692E92E0792E640E751E84E1482E512C2B
:1018B000440E551E4E545D4F5A8349838D859E8537
:1018C00080549D4F9C838B83AD85BE85A154BD4FB5
:1018D000BE83AD83BAEAAB2EB2E0BB2EED85FE85AA
:1018E000AE0EBF1EAEEA2A2EA2E03A2E2E0E3F1EEC
:1018F000E554FD4FF887EF83A70196012C5E3F4F1B
:101900004F4F5F4F29873A874B875C87C8010D850A
:101910001E859E878D87D80112968D919C91139775
:10192000DC01ED91FC910680F781E02D09959C0189
:1019300097FD1EC1F40180819181820F931F9183D5
:101940008083AD85BE854D915C91119747305105DF
:10195000B9F4F10180819181F801E80FF91F248B1E
:101960000196D10111969C938E93F501808191810E
:10197000019791838083009771F6E8E0F0E04BC017
:1019800041155105A9F42F3F310529F6E1E0F0E0BA
:10199000AD85BE85ED93FC9329853A854B855C85A5
:1019A000AF81B8852D933D934D935C931397B3CF3F
:1019B00041305105A9F42E3F310519F422E030E001
:1019C0006FC0AD85BE8511961C921E92E981FA8189
:1019D0008081882309F09FCFC8010E94FB099BCF1B
:1019E0004230510551F4D50111963C932E93F101EB
:1019F00011821082E3E0F0E02FC04330510589F4FA
:101A0000322F2227F50180819181280F391F3183E0
:101A10002083E4E0F0E0AD85BE851196FC93EE9363
:101A20007ACF4430510581F460E071E00E949F1349
:101A30008F3F910519F4E5E0F0E0EDCFAD85BE856F
:101A400011961C921E9267CF4530510571F4F30137
:101A500031832083E6E0F0E0AD85BE85ED93FC9315
:101A6000D40111963C932E9356CF46305105E9F49C
:101A7000322F2227F30180819181280F391F318372
:101A80002083E7E0F0E0AD85BE85ED93FC93D501C2
:101A90008D919C911197009709F03DCF28E030E09F
:101AA000ED85FE853183208336CF4830510509F01E
:101AB00032CFAD85BE8511961C921E9260E071E01A
:101AC0000E949F138F3F910509F025CFD301ED911F
:101AD000FC9111973097E1F41E870D87C8010E9491
:101AE000FB098D859E850E94330AED85FE85ED54A8
:101AF000FD4FC082D182E282F382ED85FE85E954FA
:101B0000FD4FC082D182E282F3822FEF3FEF5BC0B4
:101B1000EA30F10529F4C801B2010E94710BFBCE35
:101B2000E630F10551F48B819C81B2010E946E0771
:101B300021E0ED81FE812083EECEEB30F10521F432
:101B4000A981BA811C92E7CEE952FF4FEE0FFF1F29
:101B5000E00FF11F80819181009709F4DCCEDC0158
:101B6000ED91FC910190F081E02DB2010995D3CE69
:101B70001E870D87F801EE54FD4F8081882309F1FF
:101B80000D541D4FF80180819181A281B381A7017D
:101B90009601281B390B4A0B5B0BDA01C901853C06
:101BA00039E0930730E0A30730E0B30750F08D85AC
:101BB0009E850E94FB09D801CD92DD92ED92FC92A8
:101BC000139720E030E0C9012E960FB6F894DEBFDF
:101BD0000FBECDBFCF91DF911F910F91FF90EF907E
:101BE000DF90CF90BF90AF909F908F907F906F903D
:101BF0005F904F903F902F90089580910206882328
:101C000019F58091DF05882351F487E00E94B41014
:101C100021E0009709F020E02093DF0515C080EE59
:101C200095E06DED75E00E94DD0888E060E00E94BF
:101C30007C1089E060E00E947C108AE061E00E94F4
:101C40007C1081E08093020688E093E00E94EF0B15
:101C500065E070E080E090E00E94C90F0895DF9396
:101C6000CF9300D000D00F92CDB7DEB723EA32E099
:101C70003A8329836B835D834C83DC01ED91FC9176
:101C80000190F081E02D67E070E0AE014F5F5F4FA3
:101C900009950F900F900F900F900F90CF91DF91BB
:101CA0000895AB0163E00E942F0E0895CF92DF925A
:101CB000EF92FF920F931F93CF93DF93EC017B0181
:101CC000CA01643671053CF0FE01EE54FD4F2081DF
:101CD000222309F46CC0DC01ED91FC91BE016D5C26
:101CE0007E4F0190F081E02D0995FE01E45DFE4FED
:101CF0002FEF2083FE01E35DFE4F2EEF2083FE01D8
:101D0000E25DFE4F8083FE01E15DFE4F1082FE0129
:101D1000E05DFE4F282F20952083FE01EF5CFE4FF3
:101D2000E082DE01AE5CBE4F1C9245E050E020E058
:101D300030E0BC016A5F7F4F05C0A1912A0F311DC1
:101D40004F5F5F4F64177507C4F7FE01E80FF91F77
:101D5000ED5CFE4F209520838C01085F1F4FB1E0A2
:101D600009311B07E4F43CE2C32E31E0D32ECC0E44
:101D7000DD1EEE24FF240FC08A819B81F601619154
:101D80006F01DC01ED91FC910190F081E02D09954E
:101D90000894E11CF11CE016F10674F30AC0CE01B0
:101DA00062E272E00E94510E0FEF1FEF02C000E0EE
:101DB00010E0C801DF91CF911F910F91FF90EF903C
:101DC000DF90CF90089588E093E00E94F80887EDB7
:101DD00092E09093DE058093DD058BE592E0909391
:101DE000E1058093E0058DED95E09093E305809308
:101DF000E2051092E9051092E80583EE92E09093D7
:101E0000EB058093EA058FEE92E09093F1058093C5
:101E1000F0058CEB98E09093FF058093FE0581E040
:101E200090E090930106809300068AE692E09093FA
:101E3000EF058093EE050895CF92DF92EF92FF9227
:101E40000F931F93CF93DF93EC016B01FB01608134
:101E500071818281938120E03AEC4AE95BE30E9440
:101E6000B2137B018C0188819981AA81BB81820F89
:101E7000931FA41FB51F88839983AA83BB83F60190
:101E8000E082F18202831383DF91CF911F910F9142
:101E9000FF90EF90DF90CF9008951F920F920FB6B2
:101EA0000F9211242F933F938F939F93AF93BF93E0
:101EB0008091070690910806A0910906B0910A0644
:101EC00030910B060196A11DB11D232F2D5F2D37DB
:101ED00020F02D570196A11DB11D20930B06809374
:101EE000070690930806A0930906B0930A0680910E
:101EF000030690910406A0910506B091060601968E
:101F0000A11DB11D8093030690930406A0930506BE
:101F1000B0930606BF91AF919F918F913F912F9102
:101F20000F900FBE0F901F9018958FB7F8942091C7
:101F30000706309108064091090650910A068FBFA6
:101F4000B901CA0108959FB7F89420910306309112
:101F50000406409105065091060686B5A89B06C06A
:101F60008F3F21F02F5F3F4F4F4F5F4F9FBF542F49
:101F7000432F322F2227280F311D411D511D82E092
:101F8000220F331F441F551F8A95D1F7B901CA018B
:101F90000895EF92FF920F931F93CF93DF937B01EE
:101FA0008C010E94A30FEB010FC00E94A30F6C1BBA
:101FB0007D0B83E0683E780738F00894E108F1086B
:101FC00001091109C851DC4FE114F10401051105A3
:101FD00061F7DF91CF911F910F91FF90EF900895DE
:101FE000789484B5826084BD84B5816084BD85B5F4
:101FF000826085BD85B5816085BDEEE6F0E08081BB
:1020000081608083E1E8F0E01082808182608083DB
:10201000808181608083E0E8F0E08081816080835E
:10202000E1EBF0E0808184608083E0EBF0E0808190
:1020300081608083EAE7F0E0808184608083808132
:1020400082608083808181608083808180688083DA
:102050001092C1000895833071F0843028F48130EB
:10206000A1F0823021F514C08630B1F08730D1F074
:102070008430E9F404C0809180008F7703C08091A0
:1020800080008F7D80938000089584B58F7702C093
:1020900084B58F7D84BD08958091B0008F77809343
:1020A000B00008958091B0008F7D8093B0000895B6
:1020B00090E0FC01E656FF4F2491FC01EA57FF4FE8
:1020C000E491EE23C1F0F0E0EE0FFF1FE859FF4F5F
:1020D00085919491DC01662341F49FB7F8948C912B
:1020E000209582238C939FBF08959FB7F8948C917D
:1020F000822B8C939FBF08950F931F93DF93CF93F1
:102100000F92CDB7DEB7282F30E0F901E255FF4F2F
:102110008491F901E656FF4F14912A573F4FF90178
:1021200004910023D9F0882321F069830E942B10A9
:102130006981E02FF0E0EE0FFF1FEE58FF4F859111
:102140009491DC019FB7F894662321F48C9110954B
:10215000812302C08C91812B8C939FBF0F90CF91D4
:10216000DF911F910F9108950F931F93282F30E057
:10217000F901E255FF4F8491F901E656FF4F0491B2
:102180002A573F4FF9011491112391F0882311F040
:102190000E942B10E12FF0E0EE0FFF1FE458FF4FDD
:1021A00085919491DC018C91802321E030E011F441
:1021B00020E030E0C9011F910F910895FC01848552
:1021C0009585FC01E05CFF4F208131818E5B9F4F44
:1021D000FC0180819181281B390B2F733070C9015C
:1021E0000895FC0184859585FC01E05CFF4F4081EA
:1021F0005181FC01EE5BFF4F208131814217530773
:1022000041F00190F081E02DE80FF91F208130E0CE
:1022100002C02FEF3FEFC9010895FC018485958529
:10222000FC01E05CFF4F40815181FC01EE5BFF4F00
:10223000208131814217530771F0A081B181A80F2D
:10224000B91F2C918081918101968F739070918339
:10225000808330E002C02FEF3FEFC9010895DC0119
:102260001E968D919C911F97FC01E05CFF4F8E5B49
:102270009F4F40815181DC012D913C911197421774
:102280005307B9F708951F93FC01162F268537854C
:10229000D901A05CBF4F8D919C91019660E470E0E4
:1022A0000E949F13D901AE5BBF4F4D915C91119776
:1022B00084179507D1F3D901A05CBF4F0D90BC9155
:1022C000A02DA20FB31F1C93A685B785A05CBF4F9E
:1022D00011969C938E93A689B7892C9181E090E00A
:1022E000058C02C0880F991F0A94E2F7282B2C93C3
:1022F00081E090E01F910895FB01E05CFF4F208199
:1023000031812F5F3F4F2F733070DB01AE5BBF4FCA
:102310004D915C9111972417350739F0A081B18157
:10232000A60FB71F8C9331832083089508951F92C1
:102330000F920FB60F9211242F933F934F935F93F9
:102340006F937F938F939F93AF93BF93EF93FF937D
:102350008091C6006CE076E00E947C11FF91EF91C5
:10236000BF91AF919F918F917F916F915F914F91AD
:102370003F912F910F900FBE0F901F90189584E9F9
:1023800096E00E94DE10009711F00E9496110895C9
:102390001F920F920FB60F9211242F933F935F93CA
:1023A0006F937F938F939F93AF93BF93EF93FF931D
:1023B000209190063091910680919206909193061B
:1023C0002817390731F48091C1008F7D8093C100B7
:1023D00016C0E0919206F0919306E05BF94F2081E0
:1023E0008091920690919306019660E470E00E94BD
:1023F0009F1390939306809392062093C600FF91BB
:10240000EF91BF91AF919F918F917F916F915F916C
:102410003F912F910F900FBE0F901F901895DF9254
:10242000EF92FF920F931F93CF93DF93EC017A010A
:102430008B01DD24D394403081EE580780E068079B
:1024400080E0780749F4DD24EC89FD89108260E89A
:1024500074E88EE190E00FC0EC89FD8981E090E0A6
:102460000E8C02C0880F991F0A94E2F7808360E007
:1024700079E08DE390E0A80197010E94B21321500A
:10248000304040405040569547953795279580E11C
:102490002030380710F0DD20B1F6E889F989308363
:1024A000EA89FB892083EE89FF89408181E090E001
:1024B0009C010A8C02C0220F331F0A94E2F7422BC0
:1024C0004083EE89FF8940819C010B8C02C0220F62
:1024D000331F0A94E2F7422B4083EE89FF89408143
:1024E0009C010C8C02C0220F331F0A94E2F7422B8E
:1024F0004083EE89FF8920810D8C02C0880F991FCF
:102500000A94E2F7809582238083DF91CF911F9117
:102510000F91FF90EF90DF90089510929706109220
:10252000960688EE93E0A0E0B0E080939806909342
:102530009906A0939A06B0939B06E6E9F6E08BEF26
:1025400092E0929382938CE096E09587848780E571
:1025500096E09787868785EC90E0918B808B84EC62
:1025600090E0938B828B80EC90E0958B848B81EC58
:1025700090E0978B868B86EC90E0918F808F84E043
:10258000828F83E0838F87E0848F85E0858F81E071
:10259000868F0895CF93DF930E94F00F0E949509D4
:1025A000CFEBD1E10E94FD0D2097E1F30E94BF1116
:1025B000F9CFCF92DF92EF92FF920F931F93CF93B9
:1025C000DF936C017B018A01C0E0D0E00FC0D7012E
:1025D0006D917D01D601ED91FC910190F081E02D8E
:1025E000C6010995C80FD91F0150104001151105EA
:1025F00071F7CE01DF91CF911F910F91FF90EF9076
:10260000DF90CF9008952FD008F481E0089557D03F
:1026100088F09F5790F0B92F9927B751A0F0D1F0CB
:10262000660F771F881F991F1AF0BA95C9F712C055
:10263000B13081F05ED0B1E008955BC0672F782F94
:102640008827B85F39F0B93FCCF3869577956795C1
:10265000B395D9F73EF490958095709561957F4F2D
:102660008F4F9F4F0895990F0008550FAA0BE0E870
:10267000FEEF16161706E807F907C0F01216130644
:10268000E407F50798F0621B730B840B950B39F484
:102690000A2661F0232B242B252B21F408950A26EA
:1026A00009F4A140A6958FEF811D811D089557FD66
:1026B0009058440F551F59F05F3F71F04795880FB0
:1026C00097FB991F61F09F3F79F087950895121647
:1026D00013061406551FF2CF4695F1DF08C01616F3
:1026E00017061806991FF1CF8695710561050894A4
:1026F0000895E894BB2766277727CB0197F90895BB
:10270000629FD001739FF001829FE00DF11D649FD5
:10271000E00DF11D929FF00D839FF00D749FF00D61
:10272000659FF00D9927729FB00DE11DF91F639F02
:10273000B00DE11DF91FBD01CF011124089597FBD4
:10274000092E07260AD077FD04D02ED006D000200F
:102750001AF4709561957F4F0895F6F790958195DD
:102760009F4F0895A1E21A2EAA1BBB1BFD010DC0AD
:10277000AA1FBB1FEE1FFF1FA217B307E407F50731
:1027800020F0A21BB30BE40BF50B661F771F881F0D
:10279000991F1A9469F760957095809590959B01A3
:1027A000AC01BD01CF010895AA1BBB1B51E107C0BD
:1027B000AA1FBB1FA617B70710F0A61BB70B881FD1
:1027C000991F5A95A9F780959095BC01CD01089560
:1027D000EE0FFF1F0590F491E02D0994CF93DF9346
:1027E0008230910510F482E090E0E091B506F0911E
:1027F000B60640E050E020E030E026C06081718104
:1028000068177907E0F06817790781F4828193816E
:102810002115310531F0D90113969C938E931297AF
:102820002BC09093B6068093B50626C0411551057E
:1028300019F06417750718F4AB01E901DF019F0176
:1028400072816381E72FF62F3097C1F6411551054C
:1028500001F1481B590B4430510580F412968D91BB
:102860009C911397209719F09B838A8304C09093BF
:10287000B6068093B506FD01329646C0FD01E40F11
:10288000F51F819391934250504011965C934E9363
:102890003BC02091B3063091B4062115310541F4B7
:1028A0002091790230917A023093B4062093B306D6
:1028B00020917B0230917C022115310541F42DB726
:1028C0003EB74091770250917802241B350BE0917E
:1028D000B306F091B406E217F307A0F42E1B3F0BEA
:1028E0002817390778F0AC014E5F5F4F2417350782
:1028F00048F04E0F5F1F5093B4064093B306819388
:10290000919302C0E0E0F0E0CF01DF91CF91089514
:10291000CF93DF93009709F491C0FC0132971382A3
:1029200012826091B5067091B6066115710581F449
:1029300020813181280F391F8091B3069091B40610
:102940008217930799F5F093B406E093B30676C027
:10295000DB0180E090E002C0CD01D901AE17BF07D6
:1029600048F412962D913C91139721153105A1F74A
:10297000CD0121C0B383A283EF01499159919E01FA
:10298000240F351FA217B30779F42D913C911197AD
:10299000240F351F2E5F3F4F3183208312962D91D8
:1029A0003C91139733832283009729F4F093B60662
:1029B000E093B50643C0DC011396FC93EE931297A7
:1029C0004D915D91A40FB51FEA17FB0769F42081B3
:1029D0003181240F351F2E5F3F4FEC01398328834F
:1029E000228133813B832A83E0E0F0E002C0FB01D7
:1029F000BC01DB0112968D919C9113970097B9F75A
:102A00009B012E5F3F4F8D919C911197820F931FD9
:102A10004091B3065091B4064817590779F430979E
:102A200029F41092B6061092B50602C013821282E3
:102A3000225030403093B4062093B306DF91CF91FB
:102A40000895A0E0B0E0E7E2F5E10C94FB158C01FD
:102A5000CB010115110529F40E94EE13082F192F3F
:102A6000B5C0D80112979801260F371F2A173B07C8
:102A700008F4AAC0ED90FC901197E616F706D0F086
:102A800045E0E416F10408F4A1C0A7014450504009
:102A90004617570708F49AC0A70142505040461BFA
:102AA000570BF901419351936D937C93CF010E9491
:102AB00088148CC05B01AE18BF0848018E0C9F1CA7
:102AC000E091B506F091B606CC24DD24C0E0D0E05C
:102AD00041C0E815F90599F560817181AB014E5F40
:102AE0005F4F4A155B0558F1AB014A195B09CC24CD
:102AF000DD246894C1F8C40ED51E8280A380E5E071
:102B0000CE16D10448F0F9018282A382518340831A
:102B100011969C938E9309C0C7010296860F971F4A
:102B200011969C938E93E82DFA2D209719F0FB8334
:102B3000EA834CC0F093B606E093B50647C04081E7
:102B40005181C416D50608F46A01EF015281438110
:102B5000E52FF42F309709F0BCCF4091B306509188
:102B6000B40648155905E9F4C816D906D0F44091C1
:102B70007B0250917C024115510541F44DB75EB77F
:102B80006091770270917802461B570B2417350726
:102B9000D8F43093B4062093B30611969C938E9389
:102BA00015C00E94EE13C82EE6016E01D92EE60173
:102BB000209751F08C2DB801A7010E94EC15C80197
:102BC0000E948814860102C000E010E0C801CDB761
:102BD000DEB7ECE00C941716FB01DC0102C001909B
:102BE0000D9241505040D8F708952F923F924F9246
:102BF0005F926F927F928F929F92AF92BF92CF928D
:102C0000DF92EF92FF920F931F93CF93DF93CDB795
:102C1000DEB7CA1BDB0B0FB6F894DEBF0FBECDBF0D
:102C200009942A88398848885F846E847D848C84DE
:102C30009B84AA84B984C884DF80EE80FD800C81E7
:102C40001B81AA81B981CE0FD11D0FB6F894DEBFCA
:0C2C50000FBECDBFED010895F894FFCF3A
:102C5C007374645F6D7367732F54696D650063647F
:102C6C003731363663373463353532633331316659
:102C7C00626363326665356137626332383900727C
:102C8C006F7373657269616C5F6D7367732F546FCB
:102C9C00706963496E666F003633616135653866FD
:102CAC003162646436663335633639666531613159
:102CBC00623964323865396600726F737365726994
:102CCC00616C5F6D7367732F4C6F6700313161629C
:102CDC0064373331633235393333323631636436EA
:102CEC00313833626431326436323935003966300A
:102CFC00653938626461363539383139383664644F
:102D0C006635336166613761343065343900676527
:102D1C006F6D657472795F6D7367732F506F696E29
:102D2C0074003461383432623635663431333038BD
:102D3C0034646332623130666234383465613766CC
:102D4C003137007374645F6D7367732F426F6F6CF0
:102D5C00003862393463316235336462363166620D
:102D6C003661656434303630323861643633333230
:102D7C0061004D6573736167652066726F6D2064C9
:102D8C0065766963652064726F707065643A206D56
:102D9C00657373616765206C617267657220746816
:102DAC00616E206275666665722E002F6D6173749C
:102DBC0065722F627574746F6E002F6D617374651C
:102DCC00722F6C656473002000B7060000000000D1
:102DDC0000560EEF0BB70500000000BC053E012E9F
:102DEC00023102000000008D00B00038013B0100F0
:102DFC000000004B0634027F0282020000000076C5
:102E0C00066E0785028802726F7373657269616C56
:102E1C005F6D7367732F5265717565737450617252
:102E2C00616D000000000085058C0593059605007A
:102E3C000000009905AD05B105B405000000008B3C
:102E4C0002DD037F058205000000004311D912DE6C
:082E5C00100D11F1102F1100FF
:00000001FF
