:100000000C9463000C948B000C948B000C948B006C
:100010000C948B000C948B000C948B000C948B0034
:100020000C948B000C948B000C948B000C948B0024
:100030000C948B000C948B000C948B000C948B0014
:100040000C94D00D0C948B000C9413120C9456123B
:100050000C948B000C948B000C948B000C948B00F4
:100060000C948B000C948B00000000070002010030
:100070000003040600000000000000000102040864
:100080001020408001020408102001020408102002
:10009000040404040404040402020202020203032E
:1000A00003030303000000002300260029000000D2
:1000B0000000250028002B0000000000240027007D
:1000C0002A00230D121311241FBECFEFD8E0DEBF8C
:1000D000CDBF13E0A0E0B1E0EEE3F9E202C005908D
:1000E0000D92A830B107D9F716E0A8E0B3E001C03F
:1000F0001D92AA3BB107E1F710E0C6ECD0E004C0C6
:100100002297FE010E948114C23CD107C9F70E94C8
:1001100090130C949D140C940000FC01DB0182816F
:100120008C93838111968C931197848112968C9372
:100130001297858113968C931397868114968C93CE
:100140001497878115968C931597808516968C93B6
:100150001697818517968C9388E090E00895FC01AE
:10016000DB014C9150E060E070E042835383648394
:10017000758311968C911197582B42835383648316
:10018000758312968C911297682B428353836483F4
:10019000758313968C911397782B428353836483D2
:1001A000758314964C91149750E060E070E046839C
:1001B00057836087718715968C911597582B4683C6
:1001C00057836087718716968C911697682B4683A4
:1001D00057836087718717968C91782B4683578356
:1001E0006087718788E090E0089586E091E0089547
:1001F00084E191E008956F927F928F929F92AF92E7
:10020000BF92CF92DF92EF92FF920F931F93CF9303
:10021000DF93FC01DB018C9190E093838283119644
:100220002C911197922B9383828312964D915D911D
:100230006D917C9115975D0186E0A80EB11C8A0135
:100240009B010A5F1F4F2F4F3F4F6501CA1ADB0A00
:10025000E12CF12CC016D106E206F30640F4E501CC
:10026000F9905E01CE010297EC01F882EECFED012C
:10027000C40FD51F1D82CD01059695838483ED01A2
:10028000C40FD51FCE80DF80E884F984465F5F4FBE
:100290003D01640E751E8A01222717FD2095322F1D
:1002A0000C0D1D1D2E1D3F1D43018A1A9B0AA12CFA
:1002B000B12C80169106A206B30640F4E3016991C1
:1002C0003E01CE010297EC016883EECFC40ED51E2D
:1002D0009D012C0D3D1DC9010197EC011882415073
:1002E00051094A0F5B1F57834683E9010881198131
:1002F0002A813B81D4E0CD0ED11C3D016C0C7D1CCC
:10030000A601662757FD6095762F400F511F621F8B
:10031000731F43018A1A9B0AA12CB12C84169506DF
:10032000A606B70640F4E301F9903E01CE0102971C
:10033000EC01F882EECF0C0D1D1D9D01200F311F29
:10034000C9010197EC011882D1E0CD1AD108CA0E7B
:10035000DB1ED186C086D90111968C911197129619
:100360004C91129750E060E070E0BA0155274427A5
:10037000582B8C91482B13968C91782B428753875E
:1003800064877587C8010496DF91CF911F910F9103
:10039000FF90EF90DF90CF90BF90AF909F908F90A5
:1003A0007F906F90089585E391E008958EE491E049
:1003B0000895AF92BF92CF92DF92EF92FF921F9378
:1003C000CF93DF939C01FB018081D90112968C931E
:1003D00081819281A381B4815B01C5E0AC0EB11C27
:1003E000AC01BD014B5F5F4F6F4F7F4F6501CE1A70
:1003F000DF0AE12CF12CC416D506E606F70650F408
:10040000E501D9905E017E01D2E0ED1AF108E70125
:10041000D882ECCFEF01C80FD91F1C823496E901B6
:10042000FC83EB830596DF91CF911F91FF90EF90B6
:10043000DF90CF90BF90AF9008958FE691E0089540
:1004400082E891E008958DE792E0089583EA91E0D3
:100450000895CF92DF92EF92FF920F931F93CF9365
:10046000DF938C01EB01FC01428153816481758132
:10047000DB01CA01E7E1B595A79597958795EA95C0
:10048000D1F79927AA27BB270097A105B10521F02D
:1004900080589C4FAF4FBF4F188219821A826A0151
:1004A0007B0135E0CC0CDD1CEE1CFF1C3A95D1F72E
:1004B000CB826A017B01E3E0F594E794D794C7947B
:1004C000EA95D1F7CC826A017B01FBE0F594E794D1
:1004D000D794C794FA95D1F7CD826C017D0124E0C1
:1004E000CC0CDD1CEE1CFF1C2A95D1F733E1759571
:1004F0006795579547953A95D1F74F704C294E839C
:100500006C017D0144E0F594E794D794C7944A9533
:10051000D1F7CF8220E030E0A901F8016281738138
:10052000848195810E949D1387FF03C08C2D806874
:100530008F83F8014681578160857185DB01CA018F
:1005400027E1B595A795979587952A95D1F799278E
:10055000AA27BB270097A105B10521F080589C4F21
:10056000AF4FBF4F188619861A866A017B01F5E0E6
:10057000CC0CDD1CEE1CFF1CFA95D1F7CB866A0172
:100580007B0123E0F594E794D794C7942A95D1F79B
:10059000CC866A017B013BE0F594E794D794C7943D
:1005A0003A95D1F7CD866C017D01E4E0CC0CDD1CE1
:1005B000EE1CFF1CEA95D1F7F3E175956795579509
:1005C0004795FA95D1F74F704C294E876C017D0104
:1005D000A4E0F594E794D794C794AA95D1F7CF8671
:1005E00020E030E0A901F80166817781808591855E
:1005F0000E949D1387FF03C08C2D80688F87F801B0
:1006000082859385A485B585AC01BD01E7E175952B
:10061000679557954795EA95D1F755276627772728
:10062000411551056105710521F040585C4F6F4F30
:100630007F4F188A198A1A8A6C017D0125E0CC0C3B
:10064000DD1CEE1CFF1C2A95D1F7CB8A6C017D01C5
:1006500033E0F594E794D794C7943A95D1F7CC8AD0
:100660006C017D01EBE0F594E794D794C794EA958B
:10067000D1F7CD8A6A017B01F4E0CC0CDD1CEE1CC5
:10068000FF1CFA95D1F723E1B595A7959795879526
:100690002A95D1F78F708C298E8B6A017B0134E00B
:1006A000F594E794D794C7943A95D1F7CF8A20E090
:1006B00030E0A901F80162857385848595850E94E3
:1006C0009D1387FF03C08C2D80688F8B88E190E09D
:1006D000DF91CF911F910F91FF90EF90DF90CF901E
:1006E00008950F931F93FC01DB0113960C91139750
:1006F00002950695077010E020E030E00283138336
:100700002483358314964C91149750E060E070E098
:1007100093E0440F551F661F771F9A95D1F7402B22
:10072000512B622B732B42835383648375831596FD
:100730000C91159710E020E030E08BE0000F111FC6
:10074000221F331F8A95D1F7042B152B262B372B0D
:10075000028313832483358316964C9116974F702A
:1007600050E060E070E093E1440F551F661F771F73
:100770009A95D1F7402B512B622B732B42835383D5
:100780006483758316968C91169782958F70179651
:100790000C9117970F7710E020E030E094E0000F05
:1007A000111F221F331F9A95D1F7082B0115110530
:1007B0002105310599F0005813402109310987E1DD
:1007C000000F111F221F331F8A95D1F7042B152B01
:1007D000262B372B028313832483358317968C9122
:1007E000179787FF05C070584283538364837583CE
:1007F0001B960C911B9702950695077010E020E060
:1008000030E006831783208731871C964C911C9714
:1008100050E060E070E093E0440F551F661F771FC3
:100820009A95D1F7402B512B622B732B468357831C
:10083000608771871D960C911D9710E020E030E0D5
:100840008BE0000F111F221F331F8A95D1F7042B55
:10085000152B262B372B06831783208731871E966F
:100860004C911E974F7050E060E070E093E1440FB0
:10087000551F661F771F9A95D1F7402B512B622B7E
:10088000732B46835783608771871E968C911E97C2
:1008900082958F701F960C911F970F7710E020E0C4
:1008A00030E094E0000F111F221F331F9A95D1F7FB
:1008B000082B011511052105310599F00058134049
:1008C0002109310987E1000F111F221F331F8A956B
:1008D000D1F7042B152B262B372B06831783208764
:1008E00031871F968C911F9787FF05C070584683EC
:1008F00057836087718753960C915397029506959D
:10090000077010E020E030E00287138724873587E6
:1009100054964C91549750E060E070E093E0440F9F
:10092000551F661F771F9A95D1F7402B512B622BCD
:10093000732B428753876487758755960C9155971B
:1009400010E020E030E08BE0000F111F221F331F6A
:100950008A95D1F7042B152B262B372B028713876B
:100960002487358756964C9156974F7050E060E03B
:1009700070E093E1440F551F661F771F9A95D1F7DA
:10098000402B512B622B732B4287538764877587CB
:1009900056968C91569782958F7057960C915797D3
:1009A0000F7710E020E030E094E0000F111F221FCD
:1009B000331F9A95D1F7082B011511052105310533
:1009C00099F0005813402109310987E1000F111FE8
:1009D000221F331F8A95D1F7042B152B262B372B7B
:1009E000028713872487358757968C9187FF05C028
:1009F0007058428753876487758788E190E01F911C
:100A00000F91089584EC91E0089588ED91E00895A8
:100A1000FC018281FB01808381E090E00895FB016D
:100A20002081FC01228381E090E0089589EF91E02C
:100A3000089587E092E008950F931F93CF93DF937B
:100A4000EC018C010A5F1F4FC8010E947103EC8901
:100A5000FD89C801DF91CF911F910F910994FC018D
:100A600086899789089584EC91E0089588ED91E056
:100A700008958E549D4FFC0180810895AF92BF92DE
:100A8000CF92DF92EF92FF920F931F93CF93DF935A
:100A9000EC017B018A81DB018C938B8111968C9315
:100AA000EC81FD81DF010D900020E9F7CD01019778
:100AB0006C01CE1ADF0AC601A0E0B0E0FB01828320
:100AC0009383A483B5836C817D81A601C7010696BB
:100AD0000E949414EE81FF81DF010D900020E9F760
:100AE000CD0101975C01AE1ABF0AF701EC0DFD1DA7
:100AF000850120E030E006831783208731879AE064
:100B0000C90ED11C6E817F81A501C7018C0D9D1D71
:100B10000E949414CA0CDB1CE885F985DF010D9056
:100B20000020E9F7CD0101975C01AE1ABF0AF70179
:100B3000EC0DFD1D850120E030E000831183228350
:100B4000338394E0C90ED11C68857985A501C7015E
:100B50008C0D9D1D0E949414AC0CBD1C3A852B85F8
:100B60009C858D85F701EA0DFB1D308321839283DF
:100B70008383C5010496DF91CF911F910F91FF9060
:100B8000EF90DF90CF90BF90AF9008950F931F9399
:100B9000CF93DF93DC01FB0112968C911297808337
:100BA00013968D919C911497EC0109900020E9F720
:100BB0002197C81BD90B8E0120E030E001831283FE
:100BC0002383348313966D917C911497AE01CF01EA
:100BD00005960E949414CE010596DF91CF911F9146
:100BE0000F910895BF92CF92DF92EF92FF920F93F1
:100BF0001F93CF93DF93EC017B018A81DB018C9300
:100C000011961C92119712961C92129713961C9291
:100C1000FB01379640E024E030E05A81C901049698
:100C20004517F0F4AF81B88524E0429FA00DB11DB7
:100C300011246C9111965C91119712963C91129728
:100C400013962C91DF0113976C93DF0112975C933D
:100C5000DF0111973C9320839C014F5F3496DDCFD9
:100C60004985F701E20FF31F40831182128213823C
:100C700020E03985F701E80FF91F04962317B0F437
:100C8000AE85BF8534E0239FA00DB11D11246C916A
:100C900011965C91119712964C91129713963C9174
:100CA00060835183428333832F5FE3CF288920837E
:100CB000118212821382B12C2889B21698F54B2D1D
:100CC00050E0440F551FEB89FC89E40FF51F01909C
:100CD000F081E02DDF010D900020E9F79D0121500A
:100CE00031096901CE1ADF0AF701E80FF91F860101
:100CF00020E030E000831183228333838C010C5F7A
:100D00001F4FEB89FC89E40FF51F60817181A601FB
:100D1000C701800F911F0E949414C601800F911F7C
:100D2000B394CACFDF91CF911F910F91FF90EF90B5
:100D3000DF90CF90BF9008954F925F927F928F92F5
:100D40009F92AF92BF92CF92DF92EF92FF920F935A
:100D50001F93CF93DF93EC018B01DB01FC908A8121
:100D60008F1550F4B4E0FB9EB00111248F8198855B
:100D70000E946B0F98878F83FA82F8013796F12CC7
:100D800044E050E09E012D5F3F4F8A81BA016C5FC5
:100D90007F4F6B01F81670F5408150E060E070E025
:100DA000742F662755274427DF0113978C91482B12
:100DB000DF0112978C91582BDF0111978C91682BD2
:100DC0004B835C836D837E83A6016F81788584E08D
:100DD000F89E600D711D1124D9018D909D90AD90EC
:100DE000BC90DB018D929D92AD92BC921397F394CF
:100DF0003496CBCFF801E40FF51FF08089858F156D
:100E000050F484E0F89EB00111248E859F850E94E5
:100E10006B0F9F878E879601F98680E0FE013A96D8
:100E20009985D801A20FB31FA9014C5F5F4F6A01DA
:100E3000891748F511969C91119712964C9112972B
:100E400050E060E070E0BA0155274427592B9C918F
:100E5000492B13969C91792B4A875B876C877D87FA
:100E60009601AE85BF8594E0899FA00DB11D112428
:100E700040815181628173814D935D936D937C9329
:100E800013978F5FCDCFFC9088898F1550F46F2D0D
:100E900070E0660F771F8B899C890E946B0F9C8B7B
:100EA0008B8BC601F88A712C2E0151E1450E511C25
:100EB0002889721608F044C0F801E80FF91FC080B5
:100EC000D180E280F3800496F801E80FF91FAC01AD
:100ED000662757FD6095762F4C0D5D1D6E1D7F1D9D
:100EE0009F01201B310B4901A12CB12C84169506C2
:100EF000A606B70638F4B1909F0122503109D901F6
:100F0000BC92EECFC80ED91EF801EC0DFD1D319735
:100F100010829C0121503109200F311F3A8B298BFF
:100F2000C6013B892C89E32FF22FE70DF11DE70D58
:100F3000F11DD2012D913C91318320837394B8CF60
:100F4000DF91CF911F910F91FF90EF90DF90CF90A5
:100F5000BF90AF909F908F907F905F904F9008953B
:100F6000CF93DF93EC016A817B818C819D810E940C
:100F7000A11388E00E940C0F6E817F81888599857E
:100F80000E94A11389E00E940C0F6A857B858C85E5
:100F90009D850E94A1138AE0DF91CF910C940C0FE4
:100FA000AF92BF92CF92DF92EF92FF920F931F9377
:100FB000CF93DF9300D000D01F92CDB7DEB78C0166
:100FC0007B01643671053CF0FC01EE54FD4F8081DD
:100FD000882309F486C0DA01ED91FC910190F0813B
:100FE000E02DB8016D5C7E4FCA0109956801B4ED32
:100FF000CB1ABEEFDB0A2FEFF60120832EEFF801AC
:10100000E35DFE4F2083F801E25DFE4F8083F8012F
:10101000E15DFE4F1082F801E05DFE4F282F209524
:101020002083F801EF5CFE4FE082F801EE5CFE4F9A
:10103000108225E030E040E050E0BC016A5F7F4F65
:10104000621773075CF0F801E20FF31FE45DFE4FD7
:10105000E0814E0F511D2F5F3F4FF2CF7C01F8E032
:10106000EF0EF11C800F911FFC01ED5CFE4F4095CF
:10107000408329E1E21621E0F206CCF45601C501D5
:101080008C199D098E159F0584F4D80112968D91B7
:101090009C911397F50161915F01DC01ED91FC9149
:1010A0000190F081E02D0995EACFC7011CC085EBC6
:1010B00092E09A83898383E08B8388E292E09D8328
:1010C0008C83D801ED91FC910190F081E02DAE016F
:1010D0004F5F5F4F67E070E0C80109958FEF9FEFAA
:1010E00002C080E090E00F900F900F900F900F9053
:1010F000DF91CF911F910F91FF90EF90DF90CF90F4
:10110000BF90AF90089561E088E00E94D30E61E047
:1011100088E00E940C0F60E089E00E940C0F60E004
:101120008AE00E940C0F61E089E00E94D30E61E02A
:101130008AE00E94D30E60E087E00E94D30E61E057
:1011400087E00E940C0F80E09BE4A0E0B0E0809379
:10115000320390933303A0933403B093350340E0FC
:101160005BE460E070E080913003909131030E9475
:1011700091121092D7051092D6051092D9051092AF
:10118000D8051092DD051092DC051092DB05109257
:10119000DA05E2E7F5E080E090E021913191232B40
:1011A000B1F4FC01EE0FFF1FEE58FA4F21E233E0DD
:1011B0003183208383589F4F909326038093250388
:1011C0008EE293E0909328038093270304C0019656
:1011D0008931910511F7E4EAF5E080E090E0219192
:1011E0003191232B81F4FC01EE0FFF1FEC55FA4FD8
:1011F00029E033E0318320838C599F4F90930C0377
:1012000080930B0304C001968931910541F7109238
:101210002D0368EC70E080E090E00E94490E60E0F1
:1012200088E00E940C0F61E089E00E940C0F60E0F2
:101230008AE00C940C0F0F931F93CF93DF93CDB7DD
:10124000DEB72A970FB6F894DEBF0FBECDBF8C0174
:101250008DE992E09A8389831B821C821D821E8203
:101260001F82188619861A86D801ED91FC9101908B
:10127000F081E02DAE014F5F5F4F6AE070E0C80182
:1012800009950E941A0EF8016087718782879387FB
:101290002A960FB6F894DEBF0FBECDBFDF91CF9177
:1012A0001F910F9108954F925F926F927F928F924C
:1012B0009F92AF92BF92CF92DF92EF92FF920F93E5
:1012C0001F93CF93DF93CDB7DEB72E970FB6F89469
:1012D000DEBF0FBECDBF8C0189EA92E09A8389837D
:1012E000580182E3A80EB11C780148E1442E552430
:1012F0005394612C712C6701ACEBCA1AADEFDA0A7A
:10130000D601ED91FC913097B9F1848195819C8350
:101310008B83808191819E838D8382819381DC0187
:10132000ED91FC910480F581E02D099598878F83DC
:10133000D601ED91FC9182819381DC01ED91FC91CC
:101340000680F781E02D09959A8789874B865C8610
:101350006D867E86F80180819181F601A081B18140
:1013600018966D917C911997DC01ED91FC91AE017D
:101370004F5F5F4FC8010995B2E0EB0EF11CEA1414
:10138000FB0409F0B8CF780138E1432E552453947B
:10139000612C712C6701EAE8CE1AEDEFDE0AF60146
:1013A000A081B1811097E1F112968D919C911397D4
:1013B0009C838B8314968D919C9115979E838D832E
:1013C000ED91FC9111970480F581E02DCD010995F7
:1013D00098878F83D6018D919C91DC01ED91FC91D2
:1013E0000680F781E02D09959A8789874B865C8670
:1013F0006D867E86D801ED91FC9180809180F6010A
:1014000080819181DC01ED91FC910280F381E02DDE
:101410000995AE014F5F5F4FBC01C801F40109950A
:10142000F2E0EF0EF11CEA14FB0409F0B3CFF8016F
:10143000EE54FD4F81E080832E960FB6F894DEBF08
:101440000FBECDBFDF91CF911F910F91FF90EF9015
:10145000DF90CF90BF90AF909F908F907F906F90D4
:101460005F904F9008958F929F92AF92BF92CF92CC
:10147000DF92EF92FF920F931F93CF93DF93CDB73D
:10148000DEB72A970FB6F894DEBF0FBECDBF8C0132
:101490005B018DE992E09A8389831B821C821D8205
:1014A0001E821F82188619861A860E941A0E6B01E8
:1014B0007C01F80180859185A285B385C81AD90A77
:1014C000EA0AFB0AB501CE0101960E94AF0058EE70
:1014D000852E53E0952EA12CB12CC701B601A50194
:1014E00094010E943E1469017A019B01AC018B8139
:1014F0009C81AD81BE818C0D9D1DAE1DBF1D8B835A
:101500009C83AD83BE8360E472E48FE090E00E9430
:101510001A14CF80D884E984FA84C60ED71EE81E38
:10152000F91ECF82D886E986FA860E941A0ECB80F1
:10153000DC80ED80FE80F1E0CF1AD108E108F108EF
:10154000A50194010E943E1449015A019B01AC017E
:10155000C818D908EA08FB08F801C486D586E686CB
:10156000F786CF80D884E984FA84F6E3DF1AF5E6BB
:10157000EF0AF4ECFF0A60E472E48FE090E00E946E
:101580001A14C61AD70AE80AF90AF801C08AD18AD9
:10159000E28AF38AB801605F7F4FC8010C960E940F
:1015A000A20D0E941A0EF801E954FD4F6083718369
:1015B000828393832A960FB6F894DEBF0FBECDBF09
:1015C000DF91CF911F910F91FF90EF90DF90CF901F
:1015D000BF90AF909F908F9008952F923F924F921F
:1015E0005F926F927F928F929F92AF92BF92CF92B3
:1015F000DF92EF92FF920F931F93CF93DF93CDB7BC
:10160000DEB760970FB6F894DEBF0FBECDBF988BE4
:101610008F870E941A0E2B013C012F85388929548F
:101620003D4F3A832983F90180819181A281B38161
:10163000A3019201281B390B4A0B5B0BDA01C9018C
:10164000893F9A42A105B10528F0EF85F889EE544B
:10165000FD4F10820F85188908551D4FD8018D91B7
:101660009C91892B81F0EF85F889E554FD4F8081AD
:101670009181A281B38184159505A605B70518F45B
:10168000F80111821082CF84D888F0E5CF1AFDEFDF
:10169000DF0AAF84B88824E5A21A2DEFB20A4F857D
:1016A00058894E545D4F5C834B832F853889205475
:1016B0003D4F38872F834F85588941545D4F5A8756
:1016C0004987EF84F88856E5E51A5DEFF50AA3012E
:1016D00092012C5E3F4F4F4F5F4F2B873C874D87CA
:1016E0005E872F84388834E1230E311C8F849888DC
:1016F00042E5841A4DEF940A2F85388925543D4FD1
:101700003E832D83AF85B88912968D919C91139756
:10171000DC01ED91FC910680F781E02D09959C019B
:1017200097FD13C1F60180819181820F931F9183F0
:101730008083D8014D915C9147305105A9F4F401A3
:1017400080819181AC014F5F5F4F51834083EF8572
:10175000F889E80FF91F248BD7018D919C9111977F
:1017600001978D939C938AC041155105A9F42F3F91
:10177000310509F0B6CF81E090E0D8018D939C93BC
:101780002B853C854D855E85AD81BE812D933D9336
:101790004D935C931397B6CF4130510599F42E3F8A
:1017A000310519F482E090E02EC0D8011D921C9200
:1017B000EB81FC818081811194CF8F8598890E9473
:1017C0001B09A0CF4230510579F4D7012D933C93EA
:1017D000F4011182108283E090E0D8018D939C93F4
:1017E000F601318320838ECF4330510581F4322FAF
:1017F0002227D7018D919C911197820F931F8D9372
:101800009C9384E090E0F801918380837BCF443007
:10181000510589F460E071E00E942A148F3F910520
:1018200031F485E090E0D8018D939C936BCFF80163
:101830001182108267CF4530510561F4D5012D9397
:101840003C9386E090E0F80191838083D6012D934C
:101850003C9358CF46305105C1F4322F2227F50171
:1018600080819181820F931F91838083E7E0F0E074
:10187000D801ED93FC93D7018D919C91892B09F0B0
:1018800030CF28E030E0F801ACCF4830510509F006
:1018900028CFD8011D921C9260E071E00E942A14AA
:1018A0008F3F910509F01DCFD501ED91FC91309747
:1018B000C9F48F8598890E941B098F8598890E9499
:1018C0005309EF85F889ED54FD4F408251826282C1
:1018D0007382E981FA8140825182628273828FEF42
:1018E0009FEF5CC0EA30F10531F4B1018F85988932
:1018F0000E94330A07CFE630F10551F4B1018F8120
:1019000098850E949C0681E0A985BA858C93FACEC1
:10191000EB30F10521F4EB81FC811082F3CEE9522A
:10192000FF4FEE0FFF1F2F853889E20FF31F8081D5
:101930009181009709F4D5CEDC01ED91FC910190E5
:10194000F081E02DB1010995DDCEEF85F889EE54E7
:10195000FD4F8081882301F10F8518890D541D4F9B
:10196000F80180819181A281B381A3019201281B9A
:10197000390B4A0B5B0BDA01C901853C9940A10583
:10198000B10550F08F8598890E941B09D8014D92AE
:101990005D926D927C92139780E090E060960FB616
:1019A000F894DEBF0FBECDBFDF91CF911F910F9195
:1019B000FF90EF90DF90CF90BF90AF909F908F906F
:1019C0007F906F905F904F903F902F9008958091FF
:1019D000080381112EC080912D0381110AC087E078
:1019E0000E94420F21E0892B09F020E020932D0373
:1019F00020C08091270390912803DC01ED91FC9198
:101A000060912503709126030190F081E02D4BE257
:101A100053E0099560E088E00E940C0F60E089E0E7
:101A20000E940C0F61E08AE00E940C0F81E080931D
:101A300008038EE293E00E94ED0A65E070E080E02A
:101A400090E00C94490E85EE92E090932F038093E2
:101A50002E038CE096E0909331038093300380E076
:101A600091EEA0E0B0E08093320390933303A09313
:101A70003403B09335031092E00581EC92E090932B
:101A8000EF058093EE05E2E7F5E01192119285E013
:101A9000E43AF807D1F7E4EAF5E01192119285E013
:101AA000E63DF807D1F7E2E4F3E0119284E0EA358D
:101AB000F807D9F7EAE5F4E0119285E0E237F80794
:101AC000D9F71092F0051092F6051092F5051092D4
:101AD000F7051092FD051092FC0589ED92E09093B8
:101AE0002C0380932B0381E692E090932203809352
:101AF00021038BE293E090932403809323031092BD
:101B00002A03109229038FEE92E090930A038093A8
:101B100009038DEC92E09093100380930F0380EB08
:101B200097E090931E0380931D0381E090E09093D3
:101B3000200380931F0380E792E090930E0380932D
:101B40000D030895CF92DF92EF92FF920F931F93B0
:101B5000CF93DF938C01EB01688179818A819B812E
:101B600020E03AEC4AE95BE30E943E14F801C080B1
:101B7000D180E280F380C20ED31EE41EF51EC08227
:101B8000D182E282F382688379838A839B83DF91A7
:101B9000CF911F910F91FF90EF90DF90CF9008951C
:101BA0001F920F920FB60F9211242F933F938F9392
:101BB0009F93AF93BF938091040690910506A091E7
:101BC0000606B09107063091030623E0230F2D3758
:101BD00020F40196A11DB11D05C026E8230F029631
:101BE000A11DB11D20930306809304069093050662
:101BF000A0930606B0930706809108069091090607
:101C0000A0910A06B0910B060196A11DB11D80930B
:101C1000080690930906A0930A06B0930B06BF919D
:101C2000AF919F918F913F912F910F900FBE0F9089
:101C30001F9018952FB7F8946091040670910506CF
:101C400080910606909107062FBF08953FB7F8943C
:101C50008091080690910906A0910A06B0910B06A2
:101C600026B5A89B05C02F3F19F00196A11DB11DF7
:101C70003FBF6627782F892F9A2F620F711D811D14
:101C8000911D42E0660F771F881F991F4A95D1F773
:101C90000895CF92DF92EF92FF92CF93DF936B0183
:101CA0007C010E94260EEB01C114D104E104F10471
:101CB00079F00E94260E6C1B7D0B683E7340A0F3EA
:101CC00081E0C81AD108E108F108C851DC4FECCF17
:101CD000DF91CF91FF90EF90DF90CF9008957894AF
:101CE00084B5826084BD84B5816084BD85B5826021
:101CF00085BD85B5816085BDEEE6F0E080818160BF
:101D00008083E1E8F0E010828081826080838081BE
:101D100081608083E0E8F0E0808181608083E1EB96
:101D2000F0E0808184608083E0EBF0E0808181607E
:101D30008083EAE7F0E08081846080838081826034
:101D4000808380818160808380818068808310921D
:101D5000C1000895833081F028F4813099F08230F9
:101D6000A1F008958630A9F08730B9F08430D1F41D
:101D7000809180008F7D03C0809180008F77809359
:101D80008000089584B58F7702C084B58F7D84BDAF
:101D900008958091B0008F7703C08091B0008F7D4F
:101DA0008093B0000895CF93DF9390E0FC01E45856
:101DB000FF4F2491FC01E057FF4F8491882349F1A4
:101DC00090E0880F991FFC01E854FF4FA591B49152
:101DD00082559F4FFC01C591D4919FB7611108C0F6
:101DE000F8948C91209582238C93888182230AC059
:101DF000623051F4F8948C91322F309583238C9378
:101E00008881822B888304C0F8948C91822B8C93D8
:101E10009FBFDF91CF9108950F931F93CF93DF93CF
:101E20001F92CDB7DEB7282F30E0F901E859FF4FF8
:101E30008491F901E458FF4F1491F901E057FF4FE5
:101E400004910023C9F0882321F069830E94AA0E1F
:101E50006981E02FF0E0EE0FFF1FE255FF4FA591E3
:101E6000B4919FB7F8948C91611103C010958123B0
:101E700001C0812B8C939FBF0F90DF91CF911F9159
:101E80000F910895CF93DF93282F30E0F901E8599F
:101E9000FF4F8491F901E458FF4FD491F901E057C5
:101EA000FF4FC491CC2391F081110E94AA0EEC2F18
:101EB000F0E0EE0FFF1FEC55FF4FA591B4912C9170
:101EC0002D2381E090E021F480E002C080E090E0EA
:101ED000DF91CF9108956F927F928F929F92AF92F0
:101EE000BF92CF92DF92EF92FF920F931F93CF9307
:101EF000DF93EC01CB01209781F4DF91CF911F910B
:101F00000F91FF90EF90DF90CF90BF90AF909F9098
:101F10008F907F906F900C945410FE01E60FF71F86
:101F20009E0122503109E217F30708F4ACC0D90131
:101F30000D911C91119706171707B8F00530110580
:101F400008F49FC0A801445051094617570708F4E8
:101F500098C002501109061B170B019311936D9342
:101F60007C93CF010E94EC108CC05B01A01AB10AD7
:101F70004E01800E911EA091B806B091B906612C59
:101F8000712C60E070E0109709F449C0A815B905FC
:101F9000C9F5ED90FC901197670142E0C40ED11C89
:101FA000CA14DB0478F147018A189B08640142E0F7
:101FB000C40ED11C1296BC9012971396AC91B5E04A
:101FC000CB16D10440F0B282A38391828082D901E2
:101FD0008D939C9309C00E5F1F4F0E0D1F1DF901BD
:101FE00011830083EB2DFA2F6115710531F0DB01B0
:101FF0001396FC93EE93129744C0F093B906E093C6
:10200000B8063FC06D917C9111976616770608F46B
:102010003B01BD0112960D90BC91A02DB4CF6091F3
:10202000B6067091B70668157905E9F46816790661
:10203000D0F440910001509101014115510541F446
:102040004DB75EB76091040170910501461B570BB7
:10205000E417F507C0F4F093B706E093B606F9016C
:10206000918380830EC00E9454107C01009759F028
:10207000A801BE010E949414CE010E94EC10C70179
:1020800004C0CE0102C080E090E0DF91CF911F91AB
:102090000F91FF90EF90DF90CF90BF90AF909F9007
:1020A0008F907F906F900895CF93DF93823091054A
:1020B00010F482E090E0E091B806F091B90620E0DB
:1020C00030E0A0E0B0E0309739F14081518148170D
:1020D0005907B8F04817590771F482819381109716
:1020E00029F013969C938E9312972CC09093B90667
:1020F0008093B80627C02115310531F042175307E8
:1021000018F0A901DB0101C0EF019A01BD01DF0157
:102110000280F381E02DD7CF21153105F9F0281B7E
:10212000390B2430310580F48A819B81611571055A
:1021300021F0FB019383828304C09093B9068093BE
:10214000B806FE01329644C0FE01E20FF31F8193F0
:10215000919322503109398328833AC02091B606E1
:102160003091B706232B41F42091020130910301F5
:102170003093B7062093B6062091000130910101FB
:102180002115310541F42DB73EB74091040150911E
:102190000501241B350BE091B606F091B706E21756
:1021A000F307A0F42E1B3F0B2817390778F0AC017A
:1021B0004E5F5F4F2417350748F04E0F5F1F509357
:1021C000B7064093B6068193919302C0E0E0F0E039
:1021D000CF01DF91CF910895CF93DF93009709F45A
:1021E00087C0FC01329713821282C091B806D09149
:1021F000B906209781F420813181280F391F809101
:10220000B6069091B7068217930779F5F093B70653
:10221000E093B6066DC0DE0120E030E0AE17BF07E8
:1022200050F412964D915C9113979D014115510503
:1022300009F1DA01F3CFB383A28340815181840F86
:10224000951F8A179B0771F48D919C911197840FAC
:10225000951F02969183808312968D919C9113977E
:10226000938382832115310529F4F093B906E09315
:10227000B8063EC0D9011396FC93EE9312974D9188
:102280005D91A40FB51FEA17FB0779F48081918156
:10229000840F951F0296D90111969C938E9382818B
:1022A000938113969C938E931297E0E0F0E08A81DD
:1022B0009B81009719F0FE01EC01F9CFCE01029647
:1022C00028813981820F931F2091B6063091B7067D
:1022D0002817390769F4309729F41092B90610923B
:1022E000B80602C013821282D093B706C093B60616
:1022F000DF91CF910895FC0124853585F901E05CDB
:10230000FF4F80819181F901EE5BFF4F2081318188
:10231000821B930B8F7399270895FC018485958503
:10232000FC01E05CFF4F40815181FC01EE5BFF4FFF
:10233000208131814217530741F00190F081E02D57
:10234000E80FF91F808190E008958FEF9FEF0895C7
:10235000FC0184859585FC01E05CFF4F4081518143
:10236000FC01EE5BFF4F208131814217530779F06A
:10237000A081B181A80FB91F8C91208131812F5F7D
:102380003F4F2F7333273183208390E008958FEFE1
:102390009FEF0895FC0181A1882329F0A489B589C4
:1023A0008C9186FFFBCF11A20895CF93DF93FC01A0
:1023B00026853785D901A05CBF4F8D919C911197DF
:1023C00001968F739927E901CE5BDF4F48815981D0
:1023D00084179507D9F30D90BC91A02DA20FB31FC0
:1023E0006C93A685B785A05CBF4F11969C938E9386
:1023F000A689B7892C9181E090E0078C02C0880FF4
:10240000991F0A94E2F7282B2C9381E081A304887A
:10241000F589E02D80818064808381E090E0DF9108
:10242000CF91089508951F920F920FB60F92112425
:102430002F933F934F938F939F93EF93FF938091AD
:10244000C00082FD1CC04091C6008091B2069091F0
:10245000B30601968F7399272091B4063091B50683
:102460008217930771F0E091B206F091B306EE582F
:10247000F94F40839093B3068093B20602C08091D7
:10248000C600FF91EF919F918F914F913F912F91B6
:102490000F900FBE0F901F9018958CE096E00E9451
:1024A0007B11892B11F00C94121208951F920F9238
:1024B0000FB60F9211242F933F938F939F93EF9317
:1024C000FF9320916E0630916F0680917006909177
:1024D00071062817390731F48091C1008F7D8093F0
:1024E000C10014C0E0917006F0917106E25DF94FF1
:1024F0002081809170069091710601968F739927C3
:1025000090937106809370062093C600FF91EF911F
:102510009F918F913F912F910F900FBE0F901F9021
:102520001895CF92DF92EF92FF92CF93DF93EC0159
:102530006A017B01411581EE580761057105F9F0CB
:10254000EC89FD8981E090E008A002C0880F991F06
:102550000A94E2F7808360E079E08DE390E0A701E0
:1025600096010E943E1421503109410951095695A6
:10257000479537952795211580E1380798F0EC8924
:10258000FD89108260E874E88EE190E0A701960171
:102590000E943E1421503109410951095695479531
:1025A00037952795E889F9893083EA89FB89208363
:1025B00019A2EE89FF89408181E090E09C010C8C9A
:1025C00002C0220F331F0A94E2F7422B4083EE89A8
:1025D000FF8940819C010D8C02C0220F331F0A9499
:1025E000E2F7422B4083EE89FF8940819C010E8CEB
:1025F00002C0220F331F0A94E2F7422B4083EE8978
:10260000FF8920810F8C02C0880F991F0A94E2F77E
:10261000809582238083DF91CF91FF90EF90DF90B0
:10262000CF90089510920F0610920E0688EE93E058
:10263000A0E0B0E08093100690931106A0931206DC
:10264000B09313068BEF92E090930D0680930C06E7
:1026500082E796E090931906809318068EE296E042
:1026600090931B0680931A0685EC90E090931D06CC
:1026700080931C0684EC90E090931F0680931E06C6
:1026800080EC90E0909321068093200681EC90E00E
:10269000909323068093220682EC90E09093250687
:1026A0008093240686EC90E090932706809326067C
:1026B00084E08093280683E08093290687E0809356
:1026C0002A0685E080932B0681E080932C060895EE
:1026D000CF92DF92EF92FF920F931F93CF93DF93EE
:1026E0006C017A01EB01E60EF71E00E010E0CE155A
:1026F000DF0561F06991D601ED91FC910190F081C7
:10270000E02DC6010995080F191FF1CFC801DF910F
:10271000CF911F910F91FF90EF90DF90CF90089590
:102720000E946F0E0E948308CDE4D2E10E94E70C64
:102730002097E1F30E944D12F9CF2FD008F481E0E9
:10274000089557D088F09F5790F0B92F9927B75127
:10275000A0F0D1F0660F771F881F991F1AF0BA9565
:10276000C9F712C0B13081F05ED0B1E008955BC00E
:10277000672F782F8827B85F39F0B93FCCF386955B
:1027800077956795B395D9F73EF4909580957095B8
:1027900061957F4F8F4F9F4F0895990F0008550FF8
:1027A000AA0BE0E8FEEF16161706E807F907C0F0D7
:1027B00012161306E407F50798F0621B730B840BDF
:1027C000950B39F40A2661F0232B242B252B21F4B9
:1027D00008950A2609F4A140A6958FEF811D811D59
:1027E000089557FD9058440F551F59F05F3F71F001
:1027F0004795880F97FB991F61F09F3F79F0879568
:102800000895121613061406551FF2CF4695F1DFF0
:1028100008C0161617061806991FF1CF8695710580
:10282000610508940895E894BB2766277727CB01B4
:1028300097F90895DB018F939F930E946014BF91D5
:10284000AF91A29F800D911DA39F900DB29F900DFF
:102850001124089597FB072E16F4009407D077FDF6
:1028600009D00E946B1407FC05D03EF49095819529
:102870009F4F0895709561957F4F0895A1E21A2E9C
:10288000AA1BBB1BFD010DC0AA1FBB1FEE1FFF1F14
:10289000A217B307E407F50720F0A21BB30BE40B64
:1028A000F50B661F771F881F991F1A9469F76095AB
:1028B0007095809590959B01AC01BD01CF01089565
:1028C0000E948514A59F900DB49F900DA49F800D2C
:1028D000911D11240895AA1BBB1B51E107C0AA1F1B
:1028E000BB1FA617B70710F0A61BB70B881F991FB1
:1028F0005A95A9F780959095BC01CD010895EE0FEA
:10290000FF1F0590F491E02D0994A29FB001B39FA1
:10291000C001A39F700D811D1124911DB29F700DE8
:10292000811D1124911D0895FB01DC0102C001905D
:0E2930000D9241505040D8F70895F894FFCF13
:10293E000000BA0680007374645F6D7367732F5462
:10294E00696D650063643731363663373463353508
:10295E003263333131666263633266653561376285
:10296E006332383900726F7373657269616C5F6DB3
:10297E007367732F546F706963496E666F003633D9
:10298E006161356538663162646436663335633647
:10299E003966653161316239643238653966007283
:1029AE006F7373657269616C5F6D7367732F4C6FB4
:1029BE006700313161626437333163323539333315
:1029CE0032363163643631383362643132643632D2
:1029DE0039350039663065393862646136353938D3
:1029EE003139383664646635336166613761343047
:1029FE006534390067656F6D657472795F6D7367E5
:102A0E00732F506F696E740034613834326236350C
:102A1E006634313330383464633262313066623456
:102A2E003834656137663137007374645F6D736770
:102A3E00732F426F6F6C00386239346331623533F5
:102A4E0064623631666236616564343036303238EF
:102A5E0061643633333261004D657373616765208F
:102A6E0066726F6D206465766963652064726F703F
:102A7E007065643A206D657373616765206C617271
:102A8E00676572207468616E206275666665722E67
:102A9E00002F6D61737465722F627574746F6E00A2
:102AAE002F6D61737465722F6C65647300726F7332
:102ABE0073657269616C5F6D7367732F52657175A3
:102ACE00657374506172616D00000000008D00AF7F
:102ADE0000F500F800000000003E05FB00D301D613
:102AEE000100000000C605D9011D022002000000F1
:102AFE0000F2059C06230226020000000029027146
:102B0E0003020505050000000008050F051605194E
:102B1E000500000000D007ED0A3905000000001C7A
:102B2E00052F053305360500000000D51168137B0F
:082B3E0011A8118D11CA11004C
:00000001FF
